:020000040800F2
:10000000001000202D070008C1060008C1060008E6
:10001000C1060008C1060008C1060008C1060008A4
:10002000C1060008C1060008C106000861020008F8
:10003000C1060008C1060008F1010008195B0008AC
:10004000C1060008C1060008C1060008C106000874
:10005000C1060008C1060008C1060008C106000864
:10006000C1060008C1060008C1060008C5870008CF
:10007000B9870008C1060008C1060008C1060008CB
:10008000C1060008C1060008C1060008C106000834
:10009000C106000851110008C1060008C106000889
:1000A000C1060008DD12000839120008C106000868
:1000B000C1060008C1060008C1060008C106000804
:1000C000C1060008C1060008C1060008C1060008F4
:1000D000C1060008C1060008C1060008C1060008E4
:1000E000C1060008C1060008C1060008C1060008D4
:1000F000C1060008C1060008C1060008C1060008C4
:10010000C1060008C1060008C1060008C1060008B3
:10011000C1060008C1060008C1060008C1060008A3
:10012000C1060008C1060008C1060008C106000893
:10013000C1060008C1060008C1060008C106000883
:10014000C1060008C1060008C1060008515A00088F
:10015000C1060008C1060008C1060008C106000863
:10016000C1060008C1060008C1060008C106000853
:10017000013800D0FCE770470000000000000000DC
:100180000B4A1168086806C881F30B88022181F3C5
:100190001488203080F30988BFF36F8F4FF0000080
:1001A00080F31188104700BFAFF30080AFF30080E9
:1001B00028200020000000000000000000000000D7
:1001C00007480068006880F3088862B661B6BFF32C
:1001D0004F8FBFF36F8F02DF00BF00BFAFF3008010
:1001E00008ED00E00000000000000000000000003A
:1001F000EFF309801EF0100F08BF20ED108AEFF317
:100200000B82734620E9FC0F114A116808604FF019
:10021000300080F31188BFF34F8FBFF36F8F07F06B
:10022000CBFD4FF0000080F31188094A116808687F
:10023000B0E8FC0F13F0100F08BFB0EC108A82F387
:100240000B8880F309881847AFF30080AFF3008074
:100250002820002000000000000000000000000036
:100260001EF0040F0CBFEFF30880EFF30980044980
:10027000084700BFAFF30080AFF30080AFF300800A
:100280000D66000800000000234B5A68904220D001
:10029000DA6890422AD05A69904229D0DA699042AD
:1002A00028D05A6A904227D0DA6A904226D05A6BF8
:1002B000904225D0DA6B904224D05A6C904223D0E1
:1002C000DA6C904208BF092204D090F846305BB146
:1002D000704700229FED0E7B03EBC20383ED007B92
:1002E00090F84630002BF3D106F028BA0122F1E74E
:1002F0000222EFE70322EDE70422EBE70522E9E71C
:100300000622E7E70722E5E70822E3E7AFF30080EC
:100310000000000000000000001000200348044B13
:10032000834202D0034B03B1184770477C51002031
:100330007C51002000000000064B0749C91A8910B3
:1003400048BF0131491003D0044B0BB10148184795
:10035000704700BF7C5100207C510020000000004D
:1003600010B5064C237843B9FFF7D8FF044B13B1FF
:100370000448AFF300800123237010BDB05000206B
:1003800000000000B4E0000808B5054B1BB10549AA
:100390000548AFF30080BDE80840FFF7CDBF00BFC0
:1003A0000000000090110020B4E00008A3F5803A9E
:1003B000704700BF174B002B08BF134B9D46FFF73C
:1003C000F5FF00218B460F461348144A121A0CF011
:1003D000F9FF0E4B002B00D098470D4B002B00D09F
:1003E00098470020002104000D000D48002802D08D
:1003F0000C48AFF300800CF001FC2000290008F04D
:10040000FFF90CF023FB00BF000008000000000013
:10041000000000000010002000100020C05000204C
:10042000000000000000000008B501230422184667
:10043000002103F0C1FA002008BD00BF08B5002369
:1004400004220120194603F0B7FA002008BD00BFBE
:1004500008B5044803F05CFD08F038F9BDE8084031
:1004600000F04CB894D80008014803F051BD00BF1B
:1004700094D8000808B5082000F024FBBDE8084027
:10048000082000F02DBB00BF30B5002501232C460D
:1004900020F07F4083B040EA81708DF800300190F9
:1004A000052C16D8DFE804F0090313110F0B0C21FB
:1004B000082000F023FB0134F2E75B21F8E76B1C16
:1004C0002946DDB2F4E70021F2E78021F0E7D121EF
:1004D000EEE7A4F10E03012B07D9102C07D004F18D
:1004E00008036B4413F80E1CE2E75A21E0E75D2194
:1004F000082003B0BDE8304000F000BB2DE9F04714
:10050000424D88B001AC0FCD0FC495E8070001251E
:10051000DFF8148184E807003D4803F0F9FC3D4F03
:10052000404603F0F5FC3C4B384601A903938DF897
:10053000125003F093FB2B4629460422022003F0BD
:100540003BFA02212A460846002303F035FA2B46DF
:1005500004220321022003F02FFA04222B46114625
:1005600002202E4C03F028FA2D4B4FF00211C4F854
:1005700034371C2310262B4AC4F8301704F5005AD0
:10058000C4F838274FF44870C4F8203705F09AFAB9
:1005900004F580591420CAF8A06005F093FA2320CE
:1005A000C9F8A06005F08EFAB9213846CAF8A060F3
:1005B00003F0EEFB002329461A460220C9F8A0608A
:1005C00003F0FAF9002302211A46084603F0F4F971
:1005D0002B4600220321022003F0EEF92B460022D5
:1005E0000421022003F0E8F9384603F0ADFB0023B4
:1005F0004046C4F83437C4F83037C4F83837C4F844
:10060000203703F089FC08B0BDE8F087D8D7000890
:1006100094D8000800C0055000127A0000C00350B2
:1006200002000300020001008CD800084FF0E02314
:1006300058690130704700BF4FF0E02358699B694B
:10064000C01A7047024B5868C0F38060704700BF03
:1006500000ED00E0EFF3108072B6704700B962B6AB
:10066000704700BFEFF31180302383F31188704788
:1006700080F31188704700BF4FF0FF30704700BF14
:10068000FEE700BF0020704701207047012070473F
:100690004FF0FF30704700BF0020704700207047C8
:1006A0000020704710B5144607F00EFD03460020E9
:1006B000236010BD08B507F0F9FC002008BD00BF9D
:1006C000FEE700BFBAB102F1FF3CBCF1060F70B506
:1006D00000F1040E01D971450ED10B1F01E00EF19E
:1006E000040E5EF8042C0CF1FF3CBCF1FF3F43F814
:1006F000042FF4D170BD704784460B464FF0000EB6
:1007000055080EF1010EAE45DCE900640CF1080C51
:10071000C3E9006403F10803F3D122F00103D20717
:10072000E8D550F8232041F8232070BD08B500F02B
:1007300053F82248224A2349121A9210FFF7C2FFA7
:10074000214C224BA34238BF9C4614D2DCF808301F
:100750006BB1DCE9001200230439043A51F8040FAC
:10076000013342F8040FDCF808008342F6D30CF1A1
:100770000C0CA445EAD31648164B98421BD2002411
:1007800003F1FF3CACEB000C00F110032CF0070C64
:1007900008309C4450F8043C53B1002350F8082C16
:1007A000043A42F8044F50F8041C01338B42F8D34A
:1007B00008306045EED1FFF7FDFD00BF7001000875
:1007C00070010008C0500020C8E00008BCE000082C
:1007D000C8E00008C8E0000870B54FF480444FF04E
:1007E000FF300221104B114A114D9A60D3F8882036
:1007F00042F47002C3F888200E4A94660E4A05F54A
:10080000005420666266C3F8D010BFF34F8FBFF369
:100810006F8F4FF44036002003F0E4FD0020E660C7
:1008200003F0C4FD2E6170BD00ED00E00000000883
:100830000080004400900050F7FF3700014B18681B
:10084000704700BFC4500020014B1860704700BFC4
:10085000C4500020094B1B6F03F00703022B09D083
:10086000032B04D0012B00D0FEE705487047054B51
:1008700018687047044B1868704700BF008000502C
:10088000002D3101CC500020C45000200D4B1B6FB7
:1008900003F00703022B12D0032B0DD0012B0AD13A
:1008A0000948084B094A1B6FC3F303330133B0FBFC
:1008B000F3F010607047FEE7054B1868F1E7054B51
:1008C0001868EEE700800050002D3101C050002074
:1008D000CC500020C45000200048704700B4C4042D
:1008E000014B1868704700BFCC500020104B114AD4
:1008F0001860136F03F00703032B00D07047136FCA
:1009000003F00703022B04D0032B04D0012B0CD0DF
:10091000FEE7094B1868074B084A1B6FC3F3033304
:100920000133B0FBF3F0106070470548F3E700BFF8
:10093000CC50002000800050C4500020C050002047
:10094000002D31010020704700487047002D310113
:100950004FF0B4439B68C3F304430C2B08D8DFE883
:1009600003F00B070707070723211B071D1F0900BB
:10097000002070470F4870474FF0B4439B6803F066
:100980004073B3F1807F11D0B3F1007F10D0002B02
:10099000094818BF0020704708487047084870474A
:1009A000084870470848704708487047084870472B
:1009B00008487047005A620200093D00C0EA210160
:1009C00080BA8C010048E8010024F400405DC600B4
:1009D00080841E0040420F004FF40040704700BF6B
:1009E0004FF47A70704700BF014B1868704700BF22
:1009F000C8500020F0B5002483B02948019403F0CA
:100A000087FA012304220321204602F0D5FF204665
:100A100002F054FF0122234B052001A9C3F844240E
:100A200003F070FA002839D14FF4807502264FF098
:100A30006042FF241C4B1D4FD3F8F01041F0010120
:100A4000C3F8F010D3F8FC1041F08071C3F8FC102B
:100A5000174B18493B60019B03F5D52303F2FC4378
:100A6000DB08A1FB031314499B0A013B0B61C1F88E
:100A7000F060124BC1F804531149C2F8B01FC2F81C
:100A8000803ED2F8003E2B43C2F8003E82F8204060
:100A9000D2F8003E23F48073C2F8003E03B0F0BDEC
:100AA00094D8000800D0035000ED00E0001000E0F2
:100AB000FF03004017916502000004E009000100F7
:100AC00055CEACC54FF0604284460123D2F8001EDB
:100AD00003FA0CF30B430020C2F8003E704700BF3E
:100AE0004FF0604184460122D1F8003E02FA0CF238
:100AF00023EA02030020C1F8003E70474FF0604235
:100B0000D2F8803EDB0701D41120704784460120D3
:100B100010B40C4C00FA0CF0D4F8FC3043F08073A5
:100B2000C4F8FC30D2F8003E0343C2F8003E52F84D
:100B30002C30002BF0D000205DF8044B02F82C1074
:100B4000704700BF00ED00E0D0E90003184700BF88
:100B500083680068184700BFC3680068184700BF73
:100B600010B50446064803F0D3F9A3782078B3FA09
:100B700083F3042261785B0902F01EFF002010BDA0
:100B800094D80008012290F801C08178037802FA15
:100B90000CF231B9064903EB43031B0119440A6007
:100BA0007047044903EB43031B0119440A60704773
:100BB00040E0035040D00350012290F801C08178FA
:100BC000037802FA0CF231B9064903EB43031B0127
:100BD00019440A607047044903EB43031B0119449D
:100BE0000A60704740D0035040E003500121037871
:100BF000044A407803EB43031B0181401A4411600F
:100C0000704700BF40F003501022302310B4017829
:100C1000074C13FB0123417882781859C84000F033
:100C200001000AB980F001005DF8044B704700BF75
:100C300030C00350204B1B78FBB110B5044668B39D
:100C4000FFF710FD1D4B1A7BD2B11A7FBAB193F892
:100C50002C203AB393F83C2032B393F84C20FAB1ED
:100C600093F85C2012B393F86C200AB393F87C20BD
:100C700002B3FFF7FDFC124810BD12487047012275
:100C80000121226000244FEA021C03EB021243F808
:100C90000C401173FFF7ECFC204610BD0A4810BD54
:100CA0000422EDE70222EBE70322E9E70522E7E76A
:100CB0000622E5E70722E3E7B1500020A812002052
:100CC000048000F0028000F0018000F038B5FFF7EA
:100CD000C9FC134B05461A7BE2B91A7FD2B993F8C7
:100CE0002C20BAB993F83C20A2B993F84C208AB9C9
:100CF00093F85C2072B993F86C205AB993F87C4051
:100D000044B902F0C7FE074B28461C70FFF7B0FC41
:100D1000204638BD2846FFF7ABFC034838BD00BF6E
:100D2000A8120020B1500020058000F00D4B1B7868
:100D3000B3B1072810B5044610D8FFF793FC0A4B4F
:100D400003EB04131A7B1AB9FFF792FC074810BD96
:100D500000241C73FFF78CFC204610BD044810BD16
:100D600004487047B1500020A8120020068000F00F
:100D7000018000F0028000F0002310B5154A82B017
:100D8000126801928DF80430FFF76CFC124B1C784E
:100D9000DCB901221A70FFF76BFC08220F4B01A887
:100DA0001C731C7783F82C4083F83C4083F84C403C
:100DB00083F85C4083F86C4083F87C408DF8072012
:100DC00002F08EFE204602B010BDFFF751FC044831
:100DD00002B010BDF4D70008B1500020A8120020C6
:100DE000038000F02DE9F047384C84B025789DF859
:100DF00030909DF838C0002D5AD0072854D814469A
:100E0000002A51D0002B4FD00D9AB2F5006F4BDC69
:100E10002F4E4FEA001E06EB0012127B002A52D022
:100E20004FF0000843F2100A2A4D470105EB40122B
:100E300045F80780A2F802A0C2E90188CDE902883E
:100E4000CDF80480C2F80C80B9F1000F34D00091C5
:100E5000E919C1E90134204CEB590CF0030C1C409A
:100E60000D9B4FEA8C6C013BC3F30A034CEA03135E
:100E70002343EB510F9B13B18B78C3F30013002472
:100E80000F993D4446F80E10109976447160A97888
:100E9000B46063F30411A9706946747302F052FEE2
:100EA000204604B0BDE8F0870C4804B0BDE8F087E8
:100EB0000B4804B0BDE8F08792F8038048F00308BF
:100EC00082F80380C3E70748EBE700BFB15000207A
:100ED000A8120020A81100200F80FFF3018000F06D
:100EE000028000F0078000F02DE9F047384C84B014
:100EF00025789DF830909DF838C0002D5AD00728ED
:100F000054D81446002A51D0002B4FD00D9AB2F578
:100F1000006F4BDC2F4E4FEA001E06EB0012127BD7
:100F2000002A52D04FF000084FF4447A2A4D47016E
:100F300005EB401245F80780A2F802A0C2E901883B
:100F4000CDE90288CDF80480C2F80C80B9F1000F19
:100F500034D00091E919C1E90134204CEB590CF06F
:100F6000030C1C400D9B4FEA8C6C013BC3F30A033E
:100F70004CEA03132343EB510F9B13B18B78C3F35C
:100F8000001300240F993D4446F80E101099764442
:100F90007160A978B46063F30411A9706946747331
:100FA00002F0D0FD204604B0BDE8F0870C4804B044
:100FB000BDE8F0870B4804B0BDE8F08792F80380E5
:100FC00048F0300882F80380C3E70748EBE700BF2A
:100FD000B1500020A8120020A81100200F80FFF3BC
:100FE000018000F0028000F0078000F008B50A4B95
:100FF0001A786AB107280DD8084A02EB00131B7B48
:1010000023B1002102F05CFD002008BD044808BDAA
:10101000044808BD044808BDB1500020A8120020B3
:10102000078000F0028000F0018000F008B50A4B54
:101030001A786AB107280DD8084A02EB00131B7B07
:1010400023B1012102F03CFD002008BD044808BD89
:10105000044808BD044808BDB1500020A812002073
:10106000078000F0028000F0018000F008B50A4B14
:101070001A7862B107280CD8084A02EB00131B7BD0
:101080001BB102F0ADFD002008BD054808BD0548B4
:1010900008BD054808BD00BFB1500020A8120020BF
:1010A000078000F0028000F0018000F00F4B1A78FA
:1010B000C2B10728034613D891B10D4A02EB0012C2
:1010C000127B8AB1012210B40A4C02FA03F3246D98
:1010D0000020234018BF13465DF8044B0B70704787
:1010E000054870470548704705487047B1500020D3
:1010F000A812002000000450018000F0028000F0DF
:10110000078000F00D4B1A787AB1072811D810B576
:101110000C4681B10A4A02EB00131B7B3BB102F083
:1011200071FD03460020237010BD06487047064835
:1011300010BD06487047054810BD00BFB1500020E3
:10114000A8120020028000F0078000F0018000F06B
:101150001D4B2DE9F0411F6D5B6D1F4032D4012501
:1011600000261A4CDFF86C8006E00136082E4FEAA4
:10117000450504F1100423D02F42F6D02368C8F8A7
:101180005050002BF1D0A168304601316268A16057
:101190009847637B012BE8D10D4B03EB46130028E6
:1011A000E3D1197B1A7F013660F3410160F34102FC
:1011B000082E19731A774FEA450504F11004DBD1A4
:1011C000BDE8F081FEE700BF00000450A812002037
:1011D000A81100200020045008B5192003F0F4F8ED
:1011E00020B91A2003F0F0F858B908BD192003F00F
:1011F000F9F8192003F0DAF81A2003F0E5F80028CE
:10120000F3D01A2003F0EEF8BDE808401A2003F0EE
:10121000CDB800BF38B505460C46FFF723FA0022CB
:10122000044B03EB05135C601A73BDE83840FFF70D
:101230001FBA00BF28130020F8B5254B254AD3F864
:101240002444D3F820341C4004F0553424F05024B6
:10125000C2F82044002C31D001261F4F94FAA4F587
:101260006DB3B5FA85F007EB00135A6806FA00F380
:1012700024EA030403012AB1C0B23B44197BD1B173
:1012800099689047D4B1002DE8D1D7F80432002BEB
:10129000FBD097F80C2220205AB1D7F808129847B3
:1012A000D7F80432002BF0D097F80C222020002A27
:1012B000F3D19847E9E79047002CE4D1F8BDD7F87F
:1012C0000422002AE1D020204FF40073D5E700BFAC
:1012D00000C0035000E0035028130020F8B5254B50
:1012E000254AD3F82444D3F820341C4004F0AA340F
:1012F00024F0A024C2F82044002C31D001261F4F36
:1013000094FAA4F56DB3B5FA85F007EB00135A68AB
:1013100006FA00F324EA030403012AB1C0B23B44F5
:10132000197BD1B199689047D4B1002DE8D1D7F895
:101330000432002BFBD097F80C2220205AB1D7F8AA
:1013400008129847D7F80432002BF0D097F80C22F7
:101350002020002AF3D19847E9E79047002CE4D1F8
:10136000F8BDD7F80422002AE1D020204FF4007302
:10137000D5E700BF00C0035000E003502813002051
:101380002DE9F84304460D46E37B007A84F84530A6
:10139000E37A667A94F80A80217B677B94F80E9052
:1013A00084F84430002D3DD0257FCDB100230122AB
:1013B00002F002FB002304223946304602F0FCFA18
:1013C000A37F0222012B94BF0023012349464046FC
:1013D00002F0F2FAE37F002B45D00020BDE8F8834D
:1013E0002B46042202F0E8FA2B4601223946304609
:1013F00002F0E2FAA37F0422012B94BF2B460123C3
:101400004946404602F0D8FAE37F002BE5D194F834
:1014100044000123042294F8451002F0CDFA002084
:10142000BDE8F8832B46022202F0C6FA2B460222C0
:101430003946304602F0C0FAA37F0222012B94BF46
:101440002B4601234946404602F0B6FAE37F002BC3
:10145000C3D194F844001A4694F8451002F0ACFA4F
:101460000020BDE8F88394F844000123022294F898
:10147000451002F0A1FA0020BDE8F88338B5144603
:10148000FFF7F0F80023227F0546012AA36484F8C1
:101490004C3023640DD0636B1BB100212046E26BFE
:1014A00098472846FFF7E4F8A36D0120013BA365A8
:1014B00038BD04F1600004F027F8ECE72DE9F043B3
:1014C0001D46002689B0109B0446436390F85C30AB
:1014D0000F4680F85460C563002B33D14FF440634E
:1014E00046690168092E4B6140D807BF01F120030E
:1014F00001F1380801F1240301F13C084FF0010922
:10150000082E94BF0026012604940195A16D49443C
:10151000A1651949CDF80090CDE90261216BA06A5F
:10152000FFF7E2FC02960195E16A606A00243B46FF
:101530004246CDE90344CDF80090FFF753FC09B0D3
:10154000BDE8F083012BFAD1314606680792304698
:1015500001F0B0FE0521304601F0ACFE216866695D
:10156000079A01F13C0301F14408C7E701F12C039C
:1015700001F14408C2E700BF7D1400082DE9F041E5
:10158000B74A0B680C46934205468EB000F0A78020
:10159000B44A934200F0A380B34E0DF1180C0FCE65
:1015A000ACE80F0096E807008CE80700002D00F07B
:1015B00046818422002128460BF004FFAB4A2368B1
:1015C000934240F07A81AA4A2E462A65A94AA44647
:1015D000EA624FF480222A6346F8043BBCE80F001D
:1015E0000FC69CE80F0086E80F00637E012B08BF42
:1015F0008DF82630A37E032B00F25F81DFE803F035
:1016000006C002BB4FF48073ADF82830237E9A48A1
:10161000012B05BF00224FF4E133E3688DF825204C
:10162000089302F075FC2B6D986802F071FC236939
:101630001A1F0C2A00F24181033B206806A98DF88D
:10164000243002F00BFBA3696FF3172323B92A6838
:10165000936843F4803393602379217A627A43EA72
:1016600001416379A07A43EA0242A37943EA004345
:10167000E07E002840F0E9801D268048C0F8381739
:10168000C0F83027C0F83437E27AE37943EA0243FE
:10169000C0F82437C0F8206701212846FFF770FE04
:1016A000D0B9FEF7DFFF764B1A78002A00F0C08031
:1016B000FEF7DEFFFFF760FB002105F12400FFF7D6
:1016C000B9FA0146002840F0BE8005F12800FFF776
:1016D000B1FA002840F0B7800EB0BDE8F081694E45
:1016E0000DF1180C0FCECDF814C0ACE80F0096E841
:1016F0000F000DF1040E06F110078CE80F000FCF5C
:10170000AEE80F00002D00F09A80842200212846C8
:101710000BF058FE524A2368934225D0514A934217
:1017200040F0CB804FF480114FF001085648574AE3
:101730002B6001232746C5E90B0185F85C302E1D7F
:101740002A650FCF0FC697E80F0086E80F00637E6B
:10175000012B08BF8DF81D30A37E032B00F2AD8056
:10176000DFE803F016B113AD4FF470214FF000081D
:101770004748484ADCE74FF44073ADF8283045E766
:101780004FF40073ADF8283040E702238DF8123093
:10179000227EE368012A00F0838000228DF8342045
:1017A0003548039302F0B4FB2B6D986802F0B0FB50
:1017B0002369DA1F092A00F28080063B8DF8103079
:1017C000237E2BB9E37EB3FA83F35B098DF81C30DB
:1017D00001212846FFF7D4FD00287FF47DAF227A4F
:1017E00021794FEA481341EA024103F1A04202F590
:1017F0007032C2F8AC14607A617941EA0041C2F8F3
:10180000A414A07AA17941EA0041C2F8A814E37EA9
:10181000002B5CD01C23C2F89434206801A901F08D
:1018200069FFFEF71FFF164B1A78002A7FF440AFBE
:1018300001221A70FEF71CFF03F02CFE3AE716484F
:101840000EB0BDE8F081154846E70C48C0F83817DF
:101850001C21C0F83027C0F83437C0F820171BE728
:101860000000015B00000A502CD8000800C00550A1
:10187000A0D800080200040094D8000800C003505B
:10188000B2500020F8D7000801001000B8D80008B6
:1018900001000F00C4D80008012000F0092000F06A
:1018A000104A934298BF05234FF0000298BF8DF86D
:1018B00035308DF811200C4B72E70C480CE70623ED
:1018C0008DF8123064E704238DF8123060E71D2193
:1018D000E07AE37943EA0043C2F89834C2F89414FA
:1018E0009BE700BF3F4B4C0040420F00022000F03E
:1018F0002DE9F0411D46037F82B0012B24D00E4616
:10190000F1B1EDB1B5F5006F1ADC04461746FEF7EC
:10191000A9FE94F84C3003F0FF08CBB9012384F8FA
:101920004C30FEF7A5FE5FB12046089C2B463A4698
:1019300031460094FFF7C2FD404602B0BDE8F08199
:10194000054802B0BDE8F081044802B0BDE8F0816E
:10195000FEF78EFE0248F4E7022000F0082000F0B7
:10196000032000F0D0B170B504460D46FEF77AFEB4
:1019700094F84C30064603F0FF0C8BB994F85C10D9
:10198000256131B101290FD03046FEF771FE0020EC
:1019900070BD2A46206802F04FF9F5E70548704708
:1019A000FEF766FE044870BD2A466146206801F0D5
:1019B000C3FCE9E7012000F0032000F02E4B984221
:1019C00049D013D82D4B984242D02DD82C4B984259
:1019D00027D033D82B4B984205D02B4B984202D0BE
:1019E0002A4B98423BD12A4B986D7047294B98421D
:1019F0003BD00CD9284B984233D003F5740303F540
:101A0000105398422BD1224BD3F898007047234BA8
:101A1000984219D0224B984221D11D4BD3F88C000B
:101A200070471B4B586E70471E4B984221D01E4B7F
:101A3000984214D1164BD3F8800070471B4B984244
:101A40000DD1134B186F7047114BD3F888007047B6
:101A50000F4B586F70470E4BD3F88400704700202F
:101A600070470B4BD3F894007047094BD3F89000A4
:101A70007047074B986F70470048E8010024F40056
:101A8000C0CF6A0080841E0000093D0040420F0064
:101A90000080E00F007E56030090D00380D5430203
:101AA000006CDC02C0EA210180BA8C01405DC600F6
:101AB00038B5254B0546D3F820320C4603F0070312
:101AC000042B3DD8DFE803F0030E1B2009000122A0
:101AD00005B12B6004B1226038BDFEF785FF0922F5
:101AE0000346F5E7184BD3F8283103F00703013B11
:101AF000052B22D8DFE803F0120D1C17120DFEF79C
:101B000027FF07220346E3E7FEF766FF0A220346A4
:101B1000DEE7FEF7E5FE12220346D9E7FEF78EFE6A
:101B200012220346D4E7FEF713FF12220346CFE743
:101B3000FEF70AFF12220346CAE700231222C7E774
:101B400000231A46C4E700BF0080005038B52B4B75
:101B50000546D3F894320C4603F00703013B032BF0
:101B600046D8DFE803F00E1B0A02FEF7F1FE07235A
:101B700005B1286004B1236038BDFEF7E5FE0223FD
:101B8000F6E71E4BD3F8203103F00703013B052B8A
:101B900031D8DFE803F0161229251612174BD3F8B7
:101BA000403103F00303022B0FD0032B14D0012B81
:101BB0000FD1FEF711FF1123DAE7FEF791FE102394
:101BC000D6E7FEF73BFE1023D2E7FEF70DFF112309
:101BD000CEE700201123CBE7FEF702FF1123C7E772
:101BE000FEF7B6FE1023C3E7FEF7AEFE1023BFE7F5
:101BF00000200346BCE700201023B9E70080005016
:101C000038B52B4B0546D3F860320C4603F007037A
:101C1000013B032B46D8DFE803F00E1B0A02FEF758
:101C200097FE072305B1286004B1236038BDFEF795
:101C30008BFE0223F6E71E4BD3F8203103F0070397
:101C4000013B052B31D8DFE803F0161229251612C7
:101C5000174BD3F8403103F00303022B0FD0032BB3
:101C600014D0012B0FD1FEF7B7FE1123DAE7FEF7F0
:101C700037FE1023D6E7FEF7E1FD1023D2E7FEF78B
:101C8000B3FE1123CEE700201123CBE7FEF7A8FE19
:101C90001123C7E7FEF75CFE1023C3E7FEF754FEEF
:101CA0001023BFE700200346BCE700201023B9E75C
:101CB00000800050420910B40AD0012A17D0022A2D
:101CC0000C4B0D4C1CBF4FF480534FF4005403E0F9
:101CD0004FF480534FF400540122002908BF2346DB
:101CE00000F01F0082405DF8044B1A607047034B00
:101CF000034CF1E76890005068A0005064900050D9
:101D000064A00050002300B5B0F5807F83B001933C
:101D100000F20F81B0F5807F00F20781DFE810F05C
:101D20004101050105010501050105010501050147
:101D30000501050105010501050105010501050173
:101D40000501050105010501050105010501050163
:101D50000501050105010501050105010501050153
:101D600041019801410198017201720172017201F1
:101D7000720198015102AA012F02B501AA0198012E
:101D800098019801050105010501050105010501FD
:101D900005010501980198019801F90132019801A6
:101DA0000501050105010501050105010501050103
:101DB000050105010501050105017201410141010E
:101DC00041013802AA01AA01CA015101D00102024F
:101DD00005010501050105010501D60141010501C6
:101DE00005010501050105010501050105010501C3
:101DF00005010501050105010501050105010501B3
:101E000005010501050105010501050105010501A2
:101E10000501050105010501050105010501050192
:101E20004C0205010501050105010501050105013A
:101E30000501050105010501050105010501050172
:101E40000501050105010501050105010501050162
:101E50000501050105010501050105010501050152
:101E60000501050105010501050105010501050142
:101E70000501050105010501050105010501050132
:101E80000501050105010501050105010501050122
:101E90000501050105010501050105010501050112
:101EA0000501050105010501050105010501050102
:101EB00005010501050105010501050105010501F2
:101EC00005010501050105010501050105010501E2
:101ED00005010501050105010501050105010501D2
:101EE00005010501050105010501050105010501C2
:101EF00005010501050105010501050105010501B2
:101F000005010501050105010501050105010501A1
:101F10000501050105010501050105010501050191
:101F20001A02B0F5106F00F03381002003B05DF8A5
:101F300004FBB0F5C06F00F0228112D8B0F5607FCD
:101F40006DD055D8B0F5007F40F08C80FEF782FC54
:101F5000B14BD3F89030C3F304630133B0FBF3F01B
:101F6000E4E7B0F5206F00F0A5801FD8B0F5F06F62
:101F700000F0CF80D5D8B0F5D06F00F08680B0F5F6
:101F8000E06FD2D1A44BD3F8403203F00303022B0D
:101F900024D103B05DF804EBFEF726BDB0F5C07F99
:101FA000C3D103B05DF804EBFEF770BCB0F5406F31
:101FB00000F0B880B0F5486F00F08880B0F5286F69
:101FC000B3D1954AD2F8703203F00303012BACD1A0
:101FD000D2F8403103F00303022BDAD0032B00F0D8
:101FE0008580012BA1D103B05DF804EBFEF7F4BCB2
:101FF000B0F5A06F64D0B0F5B06F00F0E280B0F53E
:10200000806F92D1844BD3F8203103F00703013B5A
:10201000052B8AD8DFE803F06560787365607E4A37
:10202000D2F8802002F00302022A00F0F180032A95
:1020300000F0EA80012A02D1FEF70CFC0346764A42
:10204000D2F88020C2F301120132B3FBF2F06DE747
:10205000FEF71CFC704B1B6FC3F380230133B0FBF6
:10206000F3F063E79AD9B0F5207FF1D0B0F5407F67
:102070007FF45BAFFEF70AFC674B1B6FC3F3802353
:102080000133B0FBF3F3580850E7634BD3F8003249
:1020900003F00703013B032B3FF647AF01A252F8C1
:1020A00023F000BFE71F0008931F0008ED20000881
:1020B000F720000801A80021FFF7A2FD019835E7ED
:1020C00001A80021FFF7F4FC01982FE701A80021E7
:1020D000FFF73CFD019829E703B05DF804EBFEF73C
:1020E000FFBB03B05DF804EBFEF7A8BB03B05DF8DF
:1020F00004EBFEF775BCFEF7C9FB800A16E703B0D8
:102100005DF804EBFEF724BC03B05DF804EBFEF7CA
:102110001BBC414BD3F8603103F00303022B7FF467
:102120005DAF36E73C4BD3F8283103F00703013BA2
:10213000052B3FF6FAAE01A252F823F0E320000887
:10214000D920000809210008FF200008E32000082A
:10215000D92000084FF0E023186910F004007FF444
:1021600020AF2D4BD3F8403103F00303022B3FF493
:1021700010AF032BBAD0012B7FF4D8AE33E7264B38
:10218000D3F8403103F00303022B7FF427AF00E7BD
:10219000214BD3F8083203F00703013B032B3FF632
:1021A000C4AE01A252F823F0E71F0008931F0008F5
:1021B000ED200008F720000803B05DF804EBFEF7FF
:1021C00049BB154AD2F8803103F00303022B9BD0A0
:1021D000032B94D0012B7FF4A8AED2F8203103F06A
:1021E0000703013B052B3FF6A0AE01A252F823F0F6
:1021F000E3200008D920000809210008FF2000087A
:10220000E3200008D9200008FEF718FB034616E774
:10221000FEF79EFB034612E70080005010B5002435
:1022200082B0B0F5807F019400F0F4811FD9B0F541
:10223000F06F00F0598100F2E380B0F5B06F00F06C
:10224000728100F2F580B0F5607F00F0D381C0F0BC
:10225000D480B0F5806F00F00381B0F5A06F40F03E
:10226000CB80002001A9FFF723FC019CC5E02438A6
:102270005C2800F2C2805C2800F2BE8001A353F803
:1022800020F000BF612400086124000861240008D8
:102290006124000861240008F923000827250008AC
:1022A000F923000843240008B7240008F923000894
:1022B000F9230008F9230008F9230008F92300088E
:1022C000F9230008F9230008F9230008F92300087E
:1022D000F9230008F9230008F9230008F92300086E
:1022E000F9230008F9230008E92400089D240008C8
:1022F000F9230008F9230008F9230008F92300084E
:10230000F9230008F9230008F9230008F92300083D
:10231000F9230008F9230008F9230008F92300082D
:10232000F9230008F923000861240008F9230008B4
:10233000F9230008F923000865250008F92300089F
:10234000F9230008912400080D25000863220008E5
:10235000C5250008F9230008F9230008F92300081F
:10236000F9230008F9230008B9250008F92300081B
:10237000F9230008F9230008F9230008F9230008CD
:10238000F9230008F9230008F9230008F9230008BD
:10239000F9230008F9230008F9230008F9230008AD
:1023A000F9230008F9230008F9230008F92300089D
:1023B000F9230008F9230008F9230008F92300088D
:1023C000F9230008F9230008F9230008F92300087D
:1023D000F9230008F9230008F9230008F92300086D
:1023E000F9230008F9230008F9230008F92300085D
:1023F000F9230008912500080024204602B010BDF2
:10240000B0F5206F44D077D8B0F5086F40F0A680C3
:10241000A54BD3F8003103F00303022B45D0032B67
:1024200000F01C81012B44D1FEF75AFA0324E4E7A3
:10243000B0F5D06F3FD0B0F5E06F2FD0B0F5C06FE2
:10244000DBD1994BD3F8403103F00303022B2CD09E
:10245000032B45D0012B2CD1FEF7BEFA0A24CCE782
:10246000914BD3F8203103F00703062BC4D801A207
:1024700052F823F0B32400084D2600082924000850
:102480005526000845260008732600087B2600080C
:10249000002001A9FFF7B4FB019CAEE7824BD3F803
:1024A000403203F00303022BD2D1FEF79DFA092438
:1024B000A3E70124A1E77C4BD3F8003203F0070324
:1024C000042B99D801A252F823F000BFB3240008CE
:1024D00059240008AB240008E12400086B260008FA
:1024E000FEF77EFA0C2488E76F4BD3F8603103F0D7
:1024F0000303022BACD1D8E7B0F5406F62D0B0F542
:10250000486F59D0B0F5286F7FF477AF664AD2F89C
:10251000703203F00303012B00F08680022B0CBF06
:102520001524002469E7604BD3F8804104F00304CC
:10253000022C00F09780032C00F08480012C7FF4A3
:102540005BAFD3F8203103F00703013B052B00F20A
:102550009A80DFE803F09A969DA09A96B0F5106FE6
:102560007FF44BAF504BD3F8083203F00703042B32
:102570003FF642AF01A252F823F000BFB324000897
:1025800059240008AB240008E12400086B26000849
:10259000454B1C6F04F00704631E032B3FF62CAF62
:1025A00001A252F823F000BF592600085126000866
:1025B000FB23000861260008002001A9FFF7C6FAE6
:1025C000019C1AE7384BD3F8283103F00703013B8D
:1025D000052B3FF611AF01A252F823F04D2600085B
:1025E00029240008552600084526000873260008FF
:1025F0007B2600082C4BD3F8803003F00303022B1A
:1026000020D0032B35D0012B7FF4F6AEFEF722F954
:102610000E24F2E64FF0E0231B695B077FF511AF54
:10262000FEF734F90D24E8E6D2F8403103F0030355
:10263000022B36D0032B31D0012B01D1FEF7CCF980
:102640001124DAE6FEF784F90724D6E6FEF7F6F859
:102650000524D2E6FEF778F90224CEE6FEF772F9F9
:102660000824CAE6FEF770F9C7E6FEF70FF90F2453
:10267000C3E6FEF7E3F80624BFE6FEF731F90424CB
:10268000BBE6FEF72DF91024B7E6FEF7D7F8FAE718
:10269000FEF75AF9F7E7FEF75BF9F4E7FEF7A0F962
:1026A000CEE7FEF7A1F9CBE70080005070B54FF4FC
:1026B00080360121022000F08FFCFEF70DF9134D4A
:1026C000134BAE661B6F41F67134C3F3033303FB48
:1026D00000001049104A884294BF00200120D169AF
:1026E000D463536823F4401343EA00535360CB038D
:1026F00048BF00234FF4803048BFD363044A0349E6
:10270000136F43F480631367086770BD0090005037
:1027100000800050005A62020000035038B50446A1
:10272000FEF7B4F80146324AD2F8843013F01003B1
:10273000FAD14FF48035D2F884202E48C2F38112AA
:10274000022A2D4A8566126F00F51C30C2F303324F
:1027500022DA02FB01122949C5698A4241F6713128
:1027600094BF00220122C163416821F4401141EA73
:102770000252E903426022D40121002000F0B6FB9E
:1027800024BB8020FFF7BEFA1D4B984203D84FF4BC
:1027900080321C4B1A6738BD02FB0111184AC5690B
:1027A000914241F6713294BF00210121C263426817
:1027B00022F4401242EA01524260EA03DCD5C363CC
:1027C0000121002000F092FB002CDAD04FF4C07001
:1027D000FFF798FA0C49084A884294BF002001206C
:1027E000136F23F4806343EA80231367C9E700BFB4
:1027F000004000500090005000800050002D31013A
:10280000005A620200A0005080F0FA024FF48031BA
:10281000064B0748074A406E5966536A23F0010386
:102820005362C3035CBF044B59667047009000506D
:102830000080005000C0075000A000504FF4C0219D
:1028400070B50546FFF7BAF8684B694A5966536890
:102850000446012B35D08020FFF7E0FC05283AD054
:10286000644B24F040749D4265D0634B9D421CD064
:10287000FDF7E4FF854206461ED8604AD36813F090
:10288000060FFBD1916894609368634013F4F81FBE
:1028900054D080209160FFF7C1FC052859D0BDE8D5
:1028A00070400121002000F021BBFDF7C7FF8542E9
:1028B000064644F08074E0D90121284600F016FB5A
:1028C000DBE74F494B6053689807FCD48020FFF743
:1028D000A5FC0528C4D1FDF7FFFF4FF48031434A22
:1028E000484B91661B6F02F51C32C3F3033303FBA5
:1028F0000000454BD169984241F6713394BF0020E6
:102900000120D3635368C90323F4401343EA0053FF
:10291000536048BF00234FF4803148BFD363394A26
:1029200024F04074136F43F4806313672F4B1967CF
:10293000304B9D4299D144F0007499E72846FDF749
:1029400083FF8020FFF76AFC052803D0AE42A6D2A1
:1029500070BD3546FDF79AFF2C4AD2F8843013F04B
:102960001003FAD14FF48034D2F884201F49C2F307
:102970008112022A234A8C66126FC2F303322FDAC5
:1029800002FB000222498A4241F6713194BF0022C3
:1029900001222048C469C163416821F4401141EA21
:1029A00002524260E20348BFC3634FF4C070FFF7B6
:1029B000A9F9194A1349904294BF002201220B6FD2
:1029C000802023F4806343EA82230B67FFF79AF9A0
:1029D0000D4B9842BAD84FF48032104B1A67B5E7C6
:1029E00002FB0000084A9042CEE700BF0090005072
:1029F00000C0015040420F0080841E0000000150C2
:102A000000E0015000800050005A62020040005077
:102A1000002D31010000035080F0FA0200A00050A8
:102A2000F8B504468020FFF7F9FB032866D04FF481
:102A3000801545F60E034FF0A0604FF48031534AE5
:102A40005566534AC2F88030524B986203F5805362
:102A50009962936DD903FCD44D4DAB6D13F0804357
:102A6000FBD1D4E90012120542EA0162E17B0A437C
:102A7000217B42EA0142617B42EA0132A17B42EAC8
:102A800081122A616269A9692069120601F0004178
:102A900042EA80620A43A17E0A43217E42EA014261
:102AA000617E42EA0122AA612A6AE17EE06922F09F
:102AB0000F0289000A4310B3024342F008020228C1
:102AC0002A6255D094F8223094F8202030491B0611
:102AD000886A43EA4213304A024094F824001343C0
:102AE00094F8232043EAC00343EA02438B6294F83C
:102AF00025301BB1264B294AC3F88020F8BD94F835
:102B000024302A6294F82020DB00A96A43EA4213A9
:102B1000214A0A4094F82110134343EA011343F475
:102B200080331B4A1E49AB62936D31EA0303FBD12C
:102B30004FF080704FF00046164994F8225088629A
:102B40001369A76823F4700343EA075313618E6186
:102B50000DB9144B986294F82330002BC7D14FF471
:102B60008031104B0A4A9962936D5B00FCD4BEE73A
:102B70002B61AB61FDF76EFD6B6B23F47F4343F478
:102B800008536B63FDF76AFD9CE700BF009000509F
:102B90000040005A0050005AC7FFFEFEF1A7FFFF99
:102BA000030001000060005A014B93F900007047D8
:102BB0006E5100204178F0B54F294FF4000E4FF4CC
:102BC000D1574FF002064FF0010428BF4F21DFF824
:102BD00074C0194A194D1A4BCCF864E057626E6004
:102BE0005C601369DB03FCD490F800C0C37B41EA4E
:102BF0000C2151618168446890F80DC0090141EAD7
:102C0000042141EA0C0190F80CC01B0141EA4C017F
:102C100090F80EC043EA4C1390F811C0916043EA5B
:102C20000C0390F810C0817C43EA4C03536011B14F
:102C30006FF4D1535362F0BD0000025000100250F7
:102C40000020025000900050014B1880704700BFD8
:102C50006A510020014B1880704700BF6851002066
:102C600010B502234FF480041849194A4C6653608A
:102C7000936813F48033FBD1012804D053620022FF
:102C8000134B5A6010BDFDF72BFE124B984215D026
:102C900003F5122303F5F863984213D00E4A00EBB4
:102CA0008001400AB2FBF0F2490A094B0120D962C7
:102CB0001A6300225862064B5A6010BD45F67A121C
:102CC0000649F2E745F61A020549EEE70090005082
:102CD0000040025000F0490264666666D8B80500FC
:102CE000BBCF0500002970B41E4B4FF480361E4D3B
:102CF0001BDDAE661B6F41F67132C3F3033303FB7A
:102D000000031A4C1A49A34294BF00230123C86947
:102D1000CA634A6822F4401242EA0353C2034B607A
:102D200001D50023CB6370BC7047AE661B6F41F6C4
:102D30007134C3F3033303FB00000E490C4A88428D
:102D400094BF00200120D169D463536870BC23F480
:102D5000401343EA00535360CB0344BF0023D363C3
:102D6000704700BF0080005000900050002D3101DE
:102D700000000350005A62024C4B98427ED015D995
:102D80004B4B984270D04B4B98423ED04A4B9842A6
:102D900048D14FF40021494B494AD3F8C830516615
:102DA00023F040734FF0B44293607047A3F5B7032C
:102DB000A3F5586398424AD00FD9424B4FF40021F3
:102DC00098426FD13E4A3D4BD3F8BC3051664FF02C
:102DD000B44223F04073936070473B4B984227D036
:102DE0003A4B984254D03A4B98421BD14FF40021B1
:102DF000334A324BD3F8A03051664FF0B44223F03F
:102E0000407343F00073936070474FF400212C4AE5
:102E10002A4BD3F8D03051664FF0B44223F04073C0
:102E2000936070474FF40022254B5A660023B9E7A0
:102E30004FF40021224A214BD3F8A03051664FF0C5
:102E4000B44223F0407343F08073936070474FF4B3
:102E500000211B4A194BD3F8B83051664FF0B442E9
:102E600023F04073936070474FF40021134B144AD2
:102E7000D3F8CC30516623F0407393E74FF4002130
:102E80000E4B0F4AD3F8C030516623F0407389E7E8
:102E90004FF40021094B0A4AD3F8A030516623F0C1
:102EA00040737FE7064A002351667BE7C0EA2101B1
:102EB0000048E801005A620280BA8C010080E00FED
:102EC000009000500024F40080841E0000093D00A2
:102ED00040420F00034A0179D36E23F030030B43C5
:102EE000D366704700400050704700BF70B500289F
:102EF00067D0354B354C1B7813B1354B984230D9E0
:102F0000D4F88430DD06FBD4D4F8843003F0C00359
:102F1000802B55D0FDF79EFC0546FDF79BFB4FF03F
:102F200000722C4B06465A660220FFF7DDFF4FF475
:102F300000632367636E98010AD4244B04E0D3F83E
:102F400084205A6E910103D4D3F884209206F6D5DA
:102F50003046FDF783FB2846BDE870400021FFF7AF
:102F6000C1BED4F88430D806FBD4D4F8843003F042
:102F7000C003402B24D0FDF76DFC0121FFF7B2FE0A
:102F8000FDF768FB4FF00072124B05465A660120B0
:102F9000FFF7AAFF4FF480632367636E99010AD499
:102FA0000A4B04E0D3F884205A6E920103D4D3F87C
:102FB00084209606F6D52846BDE87040FDF74EBB46
:102FC00070BDFDF747FC94E7281500200040005035
:102FD000005A6202006000502DE9F8430546294C72
:102FE000D4F88430DE06FBD4D4F88430C3F38113E4
:102FF0009D4228D0FDF72EFC4FF480696B1E012DF9
:10300000074609FA03F820D0FDF724FB4FF00072C1
:103010001D4B06465A662846FFF766FFC4F87080C7
:10302000636E98010AD4174B04E0D3F884205A6EDB
:10303000910103D4D3F884209206F6D53046FDF7EB
:103040000DFB022D18D0BDE8F8832946FFF74AFE94
:10305000FDF700FB4FF000720B4B06465A66284600
:10306000FFF742FFC4F87090636E9C01DBD53046D9
:10307000BDE8F843FDF7F2BA3846BDE8F843002151
:10308000FFF730BE0040005000600050704700BFA6
:1030900038B54FF000444AF6CD332849284A4C66EB
:1030A000546C136404F0010400282CD0136B18072F
:1030B0000BD50023234801E083423CD0116B013340
:1030C0000907F9D41F4A934235D0202501221E4B0F
:1030D0001E481B4985625A608B6A2B400AD11948E9
:1030E00001E0834227D08A6A01339206F9D5154A56
:1030F000934220D0002514B1114B154A1A64FFF7F2
:10310000C5FF284638BD536BD907FCD45368DB078D
:10311000F0D501210D4B5960136B0B40EAD10849E2
:10312000084801E0834206D00A6B0133D507F9D580
:10313000044A9342DED10725DDE700BF009000502E
:103140000040095040420F000050095000600950F3
:103150003254FFFF38B54FF000454AF6CD331649DB
:10316000164C4D66656C23644378154A5B0043F04A
:10317000010305F00105D363636B13F00B0FFBD163
:103180006368827823F4F87343EA02136360C278B9
:10319000437943EA0223A3600279837943EA022355
:1031A00023610078FFF774FF0DB1064B2364FFF72E
:1031B0006DFF012038BD00BF009000500040095055
:1031C000004000503254FFFF38B54FF000454AF63A
:1031D000CD330F2828BF0F200E4A0F49546E02F539
:1031E0000C224D66516C136401F00101536B1B06F8
:1031F000FCD4136A23F00F030343136209B1074B96
:103200001364002C03DB4FF00042054B5A66FFF7B6
:103210003DFF38BD00800050009000503254FFFF49
:1032200000A000504368F0B4DD0728D400F5005139
:1032300000230422202741F202064FF4A0251C4C53
:1032400000F5805CCCF810200A61CCF810200A61EF
:10325000CCF810200A61CCF810200A610761C36025
:1032600083604661836183654562C36103628362F3
:10327000C36243630365CC640363F0BC7047836837
:10328000DC0710D40A238363436D13F0500FFBD186
:10329000836C9A07FCD1012300F500514B60436811
:1032A0009B07FCD4C4E70369D907F4D5EAE700BF5C
:1032B000FF3F0D03B9B94368D90713D58368DA070F
:1032C00030D40A238363436D13F0500FFBD1836C1A
:1032D0009907FCD1012200F500535A6043689A0710
:1032E000FCD47047704710B4012400F5805301F0FE
:1032F0000F025C60436DC3F30B03002BFAD18263B2
:10330000436D13F0780FFBD101F001024B0748BF6A
:1033100042F00202836C03F003039342FAD15DF89A
:10332000044B70470369DB07D4D5CAE7836C5B069F
:10333000FCD54164704700BF38B5044615460846C1
:1033400041B93E4B9C426CD03D4B9C4208BF57203C
:10335000FEF7D8FCA368DB073AD5B0FBF5F063684D
:103360000138DD074FEA006040D5636D13F0280F88
:10337000FBD1A36C9A0752D1A36CDB075BD4A36C7F
:1033800013F0020F14BF062100216368DD0715D575
:10339000A368DA0702D52369DB0708D50A23A363EC
:1033A000636D13F0500FFBD1A36C9D07FCD101227C
:1033B00004F500535A6063689A07FCD4236923F02C
:1033C0007F43034323612046BDE83840FFF772BFC7
:1033D0006368A36DDB07A36848BF6D0003F0E003DB
:1033E000402B20D008D813B3ED0009E0236923F067
:1033F0007F430343236138BD602B1AD0802BFAD161
:103400004001B0FBF5F00F4A203802EAC002636DBC
:10341000D907FCD42263636DDB07FCD438BD0521DA
:10342000B3E7562094E705EB45056D00E8E72D016D
:10343000E6E7AD00E4E70921A7E700BF0000015B74
:1034400000000A50F8FF7F00F8B51E4643680446A6
:103450000D461746002B40F0D5802046FFF7E2FED0
:10346000E9896B7B62690B43298A22F44C5222F072
:103470000F020B4313436361A26895F818C02B7BBE
:1034800022F0804222F0E2024CEA030313436A690D
:103490001343AA68A3601AB9A36843F00043A3606A
:1034A000E969002900F0E580887A0B7A4004D4F8B5
:1034B00008E040EA8350844B0EEA030318438B88EC
:1034C00003F4C04318434B7840EA83004B7B40EA47
:1034D000C3008B7B40EA03108B7840EA8320A06016
:1034E000D4F80CE0D1E90430034378480EEA000038
:1034F0000343887943EA8023C87943EA4023E360A1
:103500000B78012B00F08A80032B00F0CA80023B6D
:10351000012B00F287806E4B9C4200F0D3806D4BF4
:103520009C4214BF4FF0FF33012341F294404FF00F
:10353000020E5B0103F1A04303F5703343F800E092
:103540004B7A04F5805083621BB1E36843F4006357
:10355000E360CB7A8BB1E36843F40043E3605C4BF8
:103560009C4200F0A7805B4B9C4206D10B7BDFF8AE
:1035700070E103F00F03CEF88030636AC97B23F05B
:1035800003030B4363622FB197F82030002B5ED00A
:1035900001230362C6B1BCF1000F02D04FF4004317
:1035A00083654B4F96F82130BC42718C64D0494EF4
:1035B000B4427BD001261943A36D23F4F95323F0C1
:1035C0001E030B43A365866501234360636DC3F34C
:1035D0000B03002BFAD10523A363636D13F0780F5F
:1035E000FBD1A36C03F00303032BFAD1002A3BD1D8
:1035F00020462978FFF75EFEA36CDB4313F4405F9F
:10360000FAD1F8BD606DC0F30B0000283FF425AF80
:10361000606DC0F30B000028F4D11EE7E36843F0AF
:103620000403E3602A4B9C4242D02A4B9C4214BFC5
:103630004FF0FF33012342F294404FF0020E5B0142
:1036400003F1A04303F5703343F800E078E797F8FF
:103650002230E16997F8217021F009013B430B43C7
:1036600043F00103C36195E720466968FFF764FEF4
:10367000BEE704F5805086E70026112B34BF4FF0DB
:10368000010C4FF0020C144FB1F5006F07F806C0A3
:1036900094BF4FF0010C4FF0020C104F07F806C01A
:1036A00088E7E36843F00403E36034E70126E4E7D6
:1036B0000023C0E70B7BDFF828E003F00F03CEF810
:1036C00074305AE7002330E7E39BBDFFFFF9F08732
:1036D0000000015B00000A50301500202C1500206E
:1036E0000090035000231A46FFF7AEBE00231A468F
:1036F000FFF7AABE436870B504460D460E69002B5D
:1037000040F0A0802046FFF78DFD22696B7BA97BEE
:1037100022F087020B43134343F080032361002E02
:1037200000F0AA802369317F23F0F80343EAC11334
:103730003178F27B0B43317943EA4113717A43EAE2
:10374000011343EA82132361E168D6E9053021F0D1
:10375000F04121F4702103430B43317B43EA812381
:10376000717B43EAC133E360A368E87B23F0030382
:10377000034343F00103A3607388A06803F4C043CC
:103780000343A360A368707943EA8023A360B379FD
:10379000F0791B01000200F4E06003F070030343C2
:1037A000606A20F4772020F4EE600343307A00034F
:1037B00000F4E0400343707F000400F470200343F2
:1037C00063626369287B23F00F030343636173899A
:1037D000A361002942D0364B9C425CD0354B9C42C1
:1037E00007D1B37B344903F00F03C1F88030002ABE
:1037F0003CD1D5E901122046FFF79EFD012204F5D8
:1038000080535A60636DC3F30B03002BFAD1052379
:10381000A363636D13F0780FFBD1A36C03F0030374
:10382000032BFAD1636D13F0280FFBD12B78A36320
:10383000636D13F0280FFBD1A36CDB4313F4405FDF
:10384000FAD170BD636DC3F30B03002B3FF45AAF85
:10385000636DC3F30B03002BF4D153E7002AC8D0E8
:10386000134B9C421ED0134B9C42C2D1337C124A54
:1038700003F00F03D367BCE7A268EB7B22F00302DF
:10388000134343F00103A36063692A7B23F00F0312
:1038900013436361ADE7B37B074903F00F034B6745
:1038A000002AA6D0337C044A03F00F031367A0E775
:1038B0000000015B00000A5000900350704700BFF9
:1038C0002DE9F84F072A16469A464FF003079DF850
:1038D00028909DF82C8001F003053ED84FEA820B1A
:1038E00000FA0BF4FCF7B6FE2D4B07FA0BF7D3F8F2
:1038F000002405FA0BFB54403C405440C3F80044FC
:10390000FCF7ACFEFCF7A6FE254BD3F808148BEAB7
:10391000010B0BEA07024A40C3F80824FCF79EFE9D
:10392000204A2149214B2248B9F1000F18BF114606
:10393000204C02F58052BAF1000F18BF1846103221
:103940000123B8F1000F18BF2246B34003600B609B
:10395000C4F8FC3F1360BDE8F88FA2F1080B4FEAF2
:103960008B0B00FA0BF4FCF775FE0D4B07FA0BF707
:10397000D3F8042405FA0BF554403C405440C3F8F6
:103980000444FCF76BFEFCF765FE054BD3F80C24F2
:1039900055403D405540C3F80C54FCF75FFEBFE76F
:1039A00000C0035014D4035014E4035010D4035047
:1039B00010E4035024D403502DE9F84F04460E467A
:1039C0001746984652B101238B40B8F1000F53D0EF
:1039D0002D4A00EB400109010A44136004EB440046
:1039E000072E4FEA001024D8051DFCF733FE0F23E5
:1039F000DFF89CA04FEA860B55F80A2007FA0BF96E
:103A000003FA0BF389EA020903EA0903534045F874
:103A10000A30FCF723FE57B90123B340B8F1000F79
:103A200022D0194A04EB4404240122441360BDE867
:103A3000F88F00F10C05FCF70DFE0F23DFF850A006
:103A4000A6F1080955F80A204FEA890907FA09FB87
:103A500003FA09F38BEA020B03EA0B03534045F820
:103A60000A30FCF7FBFDD6E7084A04EB44042401C6
:103A700022441360BDE8F88F044A00EB40010901BD
:103A80000A441360AAE700BF40D0035040E003504F
:103A900030C0035010B5152000F076FC0024FF2242
:103AA000064B21465C6520209A625C60FEF702F9B5
:103AB0002146BDE810402120FEF7FCB8000004506C
:103AC00010B4054B054C0122002908BF2346824053
:103AD0005DF8044B1A6070474020045040100450B9
:103AE00070B5012104462020FEF7E4F801212120D1
:103AF000FEF7E0F801220021FF264FF000404FF0D2
:103B0000FF350F4B5A60227812069A6094F801C074
:103B1000A27842EA0C429A6103F500529E629963D0
:103B2000196458651565152000F05CFC1520E178D6
:103B300000F066FCBDE87040152000F037BC00BF07
:103B400000000450F8B50C460125C3B29D40810029
:103B5000E37A94F80AC0D4F800E01E4F01F1A041C6
:103B600001F588211B0543EA0C431B4E94F80CC059
:103B70003D65C1F804E0617B00EB400006EB0010FE
:103B800043EA4C5322F003020166C3650267FCF767
:103B900069FD124B5D65237A13B1336C2B4333649B
:103BA000637A1BB10C4A936B2B4393632279A379FD
:103BB000094943EA0243074A93616679E379074C6E
:103BC00043EA0643A36155638D64BDE8F840FCF702
:103BD0004FBD00BF002004500000045000100450EE
:103BE00010B50124C0B28440FCF73CFD044B5A6D73
:103BF00022EA04025A659C62BDE81040FCF738BD19
:103C00000000045010B50124C0B28440FCF72AFD26
:103C1000084BDA6A224208D15B6B9C430CBF01243B
:103C20000024FCF725FD204610BD0024FCF720FDF4
:103C3000204610BD0000045038B50546144631B189
:103C400001396400B1FBF4F10902E96138BD4FF4B8
:103C50002070FEF757F80146F2E700BF2DE9F0416A
:103C60000023044641F2050C4FF0010840F6AA6E0D
:103C70000D460121324E00F58052324FC2F80480C9
:103C8000B442C0F814E08360C365C0F80CC003619F
:103C9000C361C36400F500508764A36504BF236556
:103CA00063652B8AAE7B0B4395F814C043EA8623E9
:103CB000AE7C41605160A2681343A360A36843EAED
:103CC0004C73A36036B11E4B9C4233D0E36D43F07E
:103CD0008003E3652B7B686843F48053AE68E36040
:103CE00018B301387600B0FBF6F06B7B0002E061A0
:103CF0000BB1102363616B7D1BB1A36843F4803368
:103D0000A360AB7D1BB1A36843F40043A360EB7DCC
:103D10002A7E1B07120503F0E04302F4E00213437E
:103D2000A3652B786361BDE8F0814FF42070FDF747
:103D3000E9FFD6E7EA7CA3F51033C3F8C821C5E74D
:103D400000C00550FFFF0100002370B441F20502DE
:103D5000012640F6AA650C490C4C00F5805CCCF8B5
:103D60000460884245618360C365C26000F500520B
:103D70000361C361C3649464836504BF03654365E1
:103D8000012370BC5360704700C00550FFFF010065
:103D900083695A06FCD5C16383699B06FCD5406ADA
:103DA000C0B270470146204A93689B07FCD4536811
:103DB0009807F9D4D369002BF6D15368012B03D0AF
:103DC0000A78194BDA6070475368012B1DD110B483
:103DD000154B01E0DA6912B15A68D207FAD4012210
:103DE00002241148114B04615A600F4A93689B07E3
:103DF000FCD453689C07F9D4D369002BF6D10A7818
:103E0000094B5DF8044BDA607047074A93689807DE
:103E1000FCD453689B07F9D4D369002BF6D10A78F8
:103E2000014BDA60704700BF00800A5000A00A50C2
:103E3000074A93689907FCD453689B07F9D4D36960
:103E4000002BF6D1012303494B601361704700BF7B
:103E500000800A5000900A50B8B94A680B7812B135
:103E6000127843EAC20348788A6843EA400312B1F1
:103E7000127843EA82138878CA6843EA800312B151
:103E8000127843EA4223014A9364704700800A5043
:103E900008B9014B5964704700900A5008B9014BAA
:103EA0005964704700A00A5008B9014B1964704763
:103EB00000A00A5010B9024B186C704700207047E0
:103EC00000800A5018B939B1012902D0704700208A
:103ED0007047034B186D7047014BD86C704700BF9B
:103EE00000800A5028B929B1012900D07047034B3E
:103EF0001A657047014BDA64704700BF00800A50B2
:103F000000F00EB809B100F00DB82220704700BFD4
:103F1000012100F0ADB800BF002100F0A9B800BF3A
:103F20000020704770B504460D46FCF79BFB064623
:103F30001F2C11D8DFE804F0968F1088817A107357
:103F40006C1065105E5710504942103B1034101031
:103F500010102D1026101F180023212430462B602E
:103F6000FCF786FB204670BD4FF44860FDF7CAFEA3
:103F700000240346F2E74FF42060FDF7C3FE00245F
:103F80000346EBE74FF48070FDF7BCFE00240346C8
:103F9000E4E74FF42860FDF7B5FE00240346DDE7B3
:103FA0004FF4A060FDF7AEFE00240346D6E74FF4C1
:103FB000E060FDF7A7FE00240346CFE74FF4106052
:103FC000FDF7A0FE00240346C8E74FF4D060FDF7DC
:103FD00099FE00240346C1E74FF4B060FDF792FE5E
:103FE00000240346BAE74FF4F060FDF78BFE00248F
:103FF0000346B3E74FF4C060FDF784FE0024034698
:10400000ACE74FF44060FDF77DFE00240346A5E7D2
:104010004FF48060FDF776FE002403469EE74FF4E0
:104020000070FDF76FFE0024034697E74FF46070C1
:10403000FDF768FE0024034690E74FF44070FDF75B
:1040400061FE0024034689E74FF42070FDF75AFE15
:104050000024034682E74FF4C070FDF753FE0024AE
:1040600003467BE7FCF7F6FB0024034676E700BF38
:10407000B8B1036813F4E07F03F03F0CC3F382127E
:104080000CD0012A0DD1084A08480123002908BF95
:10409000024603FA0CF3002013607047044A0548F7
:1040A000F3E70E20704700BF6890005068A00050F2
:1040B0006490005064A0005000F000B830B58BB0A0
:1040C000EC464FF07E657A4C0FCCACE80F0054F80C
:1040D000043B6846CCF8003095F89C3005F5004567
:1040E000FF2B08BF24238DF80130FEF763FD32203B
:1040F000FEF7AAFD0FCCEC46ACE80F000FCCACE805
:104100000F0094E803008CE80300D5F84C31190344
:1041100009D54FF6FF72674B1B88934200F0C580AC
:104120001C46DBB203E0D5F85041E4B223468DF8DB
:104130001930FEF739FD0346234483F308035E4834
:104140008DF81830FCF7D2FB6846FEF769FC322088
:10415000FEF780FD5948FEF771FB5948FEF70CFE4B
:10416000584C01213620FDF7A5FD0020FEF778FD13
:10417000FEF79CFA236F002023F0070343F00303AC
:104180002367236F23F474432367FEF7C7FA4E4B6C
:10419000D3F8FC20D2017BD5D3F8FC2022F080722A
:1041A000C3F8FC20D4F8802022F0030242F0010280
:1041B000C4F88020D4F88020C4F88020D3F8FC20F4
:1041C00042F08072C3F8FC203E4CD4F8203123F03A
:1041D000070343F00203C4F82031D4F8283123F058
:1041E000070343F00203C4F82831D4F8803123F0E8
:1041F000030343F00103C4F88031D4F8403123F0C5
:10420000030343F00203C4F84031D4F8603123F0D3
:10421000030343F00203C4F86031D4F8403223F0C2
:10422000030343F00203C4F84032D4F8003223F011
:10423000070343F00203C4F80032D4F8083223F035
:10424000070343F00203C4F80832D4F8703223F0B5
:10425000030343F00103C4F87032D4F8203223F092
:10426000070343F00103C4F82032FEF7CFFA4FF002
:10427000E0220020136963F004031361D4F8603274
:1042800023F0070343F00103C4F860320BB030BDE4
:10429000D4F8803023F0030343F00103C4F88030E6
:1042A000D4F88030C4F880308EE757231C463EE7B0
:1042B00048D800080001E00FC017530200B4C4043E
:1042C000C0EA21010080005000ED00E000B50A4B7B
:1042D00083B093E803000B0C00906846ADF804101F
:1042E0008DF80630FEF736FF0C20FEF76DFF00203C
:1042F00003B05DF804FB00BF84D8000810B50024AB
:10430000074A82B0536F684643F001035367009435
:104310008DF80440FEF7DEFD204602B010BD00BF60
:10432000004000506FF004024FF0500C10B40B48E6
:104330000B4C02F00F03043B12F0800F00EB020164
:10434000234407D101324C2A81F800C3F1D15DF832
:10435000044B704783F818C00132EAE700E100E03F
:1043600000ED00E0BFF34F8F0549064BCA6802F429
:10437000E0621343CB60BFF34F8F00BFFDE700BF88
:1043800000ED00E00400FA0500280CDB01220649DC
:10439000430900F01F002033824041F82320BFF37F
:1043A0004F8FBFF36F8F704700E100E0002807DBFD
:1043B000012300F01F01034A40098B4042F82030DE
:1043C000704700BF00E100E0054B421153F8223076
:1043D00000F01F0023FA00F0C04300F00100704716
:1043E00000E100E0002808DB01224309034900F056
:1043F0001F006033824041F82320704700E100E055
:1044000009010028C9B206DB00F1604000F56140F7
:1044100080F800137047034B00F00F000344197637
:10442000704700BFFCEC00E070B582B0FCF712F9F9
:104430000F4D104B2E781C68FCF710F901F066FC4C
:1044400008B1FF2E03D154B1204602B070BD002048
:10445000297801AAFCF726F9019C002CF4D1FCF77D
:10446000F9F8054B1C68FCF7F9F8204602B070BD5E
:104470006F510020341500203815002010B5044677
:10448000FCF7E8F8024B1C60FCF7E8F8002010BDD0
:10449000381500202DE9F043884617461D4683B0A5
:1044A00058B104460BB3A6681EB32B463A464146A4
:1044B0002068B04703B0BDE8F083FCF7CBF8164E98
:1044C000164B96F800901C68FCF7C8F801F01EFC2B
:1044D00040B1B9F1FF0F05D00020317801AAFCF7F7
:1044E000E1F8019C4CB1002DDDD1A66801AD002E94
:1044F000DBD1232003B0BDE8F083FCF7ABF8084B19
:104500001C68FCF7ABF815B1002CF2D0CBE701AD7D
:10451000002CEED0C7E700BF6F51002034150020FB
:104520003815002070B584B004468DF8071040B1EE
:1045300063681BB3012220680DF10701984704B09E
:1045400070BDFCF787F80F4D0F4B2E781C68FCF7F9
:1045500085F801F0DBFB38B1FF2E05D0002029786B
:1045600003AAFCF79FF8039C002CE1D1FCF772F83A
:10457000064B1C68FCF772F8002CD9D1232004B03C
:1045800070BD00BF6F510020341500203815002089
:1045900038B50546D0F834311C68A36C5906FCD5F3
:1045A000002395F83D111A4695F83C01FFF704FAEF
:1045B000002395F83F111A4695F83E01FFF7FCF9E4
:1045C00095F84431DA070FD49B0719D4042204F577
:1045D0000053002120461A65FEF76CFED5F838011D
:1045E000FFF79AFC002038BD002395F841111A46C8
:1045F00095F84001FFF7E0F995F844319B07E5D5C0
:10460000002395F843111A4695F84201FFF7D4F9B3
:10461000DCE700BFD0F8343110B51C68FCF71AF89D
:10462000A36C1B0609D5042304F58054E36404231A
:104630002365BDE81040FCF711B8042204F50053CF
:10464000DA64042304F580542365BDE81040FCF7C8
:1046500005B800BF08B5D0F834311868FEF766FE1B
:10466000002008BD2DE9F0471E4694B01368D57BA5
:104670000DF13008144684468E46C1461F68002D51
:104680004ED0DFF8F8A1BAE80F00A9E80F009AE8C9
:104690000F0089E80F000022A368217B0E930129F7
:1046A00006ABC3E90122C3E9032206925A6100F076
:1046B000C380022908BF4FF44072ADF83E20627BF0
:1046C000C5F10205032A98BF6649EDB298BF31F8DB
:1046D00012204FF00001CDE903551393A37B009105
:1046E00003F1FF3188BF4FF48052022988BF0023B5
:1046F0004FF001098DF818305B4BADF84020029364
:104700005A4B7246019360463146594B8DF81E90C4
:1047100000F066FB054670B1284614B0BDE8F0878E
:10472000DFF85CA1BAE80F00A9E80F009AE80F00D3
:1047300089E80F00AFE722682369D4F81500D4F8A0
:104740001910C6E94D23C6E94F014A48FFF7E0FBBF
:104750004B460422A17D607DFFF72EF94B46217E5A
:104760000222E07DFFF728F986F844512069FFF71F
:10477000CFFBE37B41463846002B60D0FEF7B2FF0B
:1047800096F8443143F0040386F844311020227D2A
:10479000394902F1250C01EB4212C2F89404607D04
:1047A00001EB4C1194F816C040EA0C40C2F8AC047E
:1047B000207EE27D42EA00424A60A27B02F0FD01D7
:1047C00001290CD143F0010386F844310222002371
:1047D000A17E607EFFF7F0F8A27B96F84431023AA2
:1047E000012A31D9DB0718D541F2944141F29C46A8
:1047F0000220237D94F81AC0627E5B0103F1A0437E
:1048000003F5703342EA0C429A515850217FE27E00
:1048100003F5A55342EA01421A60042307F58052CA
:1048200007F500543846E36405211365FEF742FDA1
:10483000284614B0BDE8F0874FF400723DE7FEF75C
:1048400055FF96F84431A1E743F0020386F844315E
:1048500004220023217FE07EFFF7AEF896F8443172
:10486000C0E700BFD0D800089145000815460008F1
:104870005546000894D8000800C00350D8D8000856
:10488000F8D80008F8B50468D4F834311D68EB6C2A
:104890005B070BD5042605F50053DE64227E32B19A
:1048A000627E1AB194F82D20A2B91E65F8BD0121CF
:1048B00094F837201E652176002AF7D0D4F88C00B2
:1048C00001F0ACFC0028F1D1D4F88C00BDE8F84030
:1048D00001F06ABC00271321284684F83570FEF7E2
:1048E00025FD05F580531E65EB6BDBB2112B0FD058
:1048F000132BDBD184F83470237A03EB43031B01C1
:1049000003F1A04303F58023DB6E013B2363F8BD75
:10491000012384F83430EFE780F82C10704700BF93
:1049200090F82C00704700BF90F83700704700BF28
:1049300070B584B004460D4690F8376001F016F962
:10494000022803D084F8375004B070BDB5B1002EF2
:10495000F8D150230E4A3146009204F1900202929F
:1049600001206A460393019601F070FB237EC4F890
:104970008C00002BE6D001F017FCE3E7002EE1D01D
:10498000D4F88C0001F062FCC4F88C50DAE700BF68
:1049900018D9000870B50546046801F0E7F8022848
:1049A00029D0FFF741FD854234D094F93600FFF756
:1049B00019FD94F93600FFF7E7FCD4F88C0001F0FC
:1049C00045FCA06B01F01AFBD4F8E00001F016FBE7
:1049D000207AFCF74BFB207AFCF7A8F9FCF776F974
:1049E0000023C5E90133C5E904332046A26A2B60E0
:1049F000BDE8704010474FF0FF31D4F8E00001F0FF
:104A000093FA4FF0FF31A06B01F08EFAFFF70CFD27
:104A10008542CAD10020FFF731FDC6E770B51446C4
:104A2000137AD16803EB43031B0103F1A04315691B
:104A300003F58023DA6E01EB050C6245636986B0ED
:104A400012D09A4213D9ACEB020300260125144977
:104A50000193CDE90314D4E9001302960095FCF705
:104A600043FA002006B070BD994216D80A469B1A38
:104A70001D46002DE9D1012294F82D306276002BDD
:104A8000EFD01321E369204684F83550984720463B
:104A9000636A9847002006B070BD2B460A46E8E7D7
:104AA0001D4A00082DE9F04788B004460E46174617
:104AB000984601F05BF802287FD0FBF7D3FD8146D2
:104AC000002F66D0237E03F0FF02002B73D0D4E9C1
:104AD0000312237A0A4403EB43031B0103F1A043AF
:104AE00003F58023DB6E934208BF0B466169994250
:104AF00077D077D25B1A9F4228BF1F46FBF7B2FDE3
:104B000094F82D308246002B00F08E80384665697F
:104B100076E0236BAB4200F09380013F0132013518
:104B2000824265616DD1D4E903120A449A4200F0D1
:104B3000C4800026954208BF6161207A6676FCF742
:104B400055FA207AE56800EB40031B0103F1A0430E
:104B5000226903F58023DB6E2A44934208BF2B466B
:104B600062699A4279D00123237694F83730002B7A
:104B700040F09B800DF11E01FCF7C4FA9DF81E3039
:104B8000002B40F08380207AFCF750FA5046FBF768
:104B90006FFD4846C8F80070FBF76AFD00F0E6FFBD
:104BA000022856D0D8F80030002B14BF00201B205C
:104BB00008B0BDE8F0871746EBE705464FF0FF3138
:104BC000A06B01F0B1F9002879D194F83730002BAF
:104BD0003FF473AF4FF0FF31D4F88C0001F0A8FA26
:104BE0006BE7637E521A974228BF1746FBF73AFDE0
:104BF00094F82D308246BBB16569002F66D03846E7
:104C00000022297801F0FD03112B82D006F8011B48
:104C10006569236B9D4281D1013201330135904298
:104C200023636561EDD17EE73A466169304608F05D
:104C3000D4FBD4E9031265690A443D44656178E711
:104C4000A1F11101B1FA81F14909013F84F8341051
:104C5000E2E7A06B01F0A0F9A4E794F82D302676E6
:104C6000656103B125632046636A98470023029378
:104C700001230093164B0494039323692A4601935E
:104C8000207AD4E90013FCF72FF97CE70DF11F011E
:104C9000207AFCF70BFA9DF81F1000297FF473AF00
:104CA0002246207AFFF7BAFE6DE7D4F88C00237E07
:104CB00001F0B4FA28B1207A5CE7216339E728468D
:104CC00076E7D4F88C0001F06FFAF4E7236B2AE75B
:104CD0001D4A00082DE9F84F81460E46144600F0A3
:104CE00045FF022869D0002599F82C803B4FAC4243
:104CF00008D099F82D3063B999F83430002B41D1A0
:104D0000AC42F9D800F032FF022861D00020BDE8A3
:104D1000F88FFBF7A7FC99F8183003F0FF0A5BB394
:104D200099F80830D9F80C2003EB4303D9F810E0C8
:104D300007EB0313DB6E02EB0E018B4208BF134639
:104D400003F1FF3C624584BF0EF1FF3C944463468F
:104D5000D9F830100CE013F801B9BBF1110F20D0D5
:104D6000BBF1130F1BD09A4284BF0EF1FF339B1887
:104D70008B42F0D1C9F830C0FBF77AFC99F8343097
:104D8000002BB4D03178B8F1000F0DD14846D9F8D6
:104D90001C3098470028B5D101360135A7E74FF000
:104DA000000A89F834A0E5E70A29EFD10D21484629
:104DB000D9F81C3098473178E8E705464FF0FF31C5
:104DC000D9F8E00001F0B0F800288CD028469EE722
:104DD000D9F8E00001F0E0F898E700BF00000450C7
:104DE0002DE9F04F0C46154606468FB04FF49A72E7
:104DF000002120461F464FF0000B08F0E3FA95E82B
:104E00000300D5E9032A012395F8149095F816803C
:104E100084E80300189984F818B021621999C4F83D
:104E200010A061621A9984F82C9084F82D80E761B3
:104E3000A162E2606261226384F8343084F8353024
:104E40002B7ADFF808E184F83630364BDFF800C102
:104E50003361354BC6E901EC7361344B3460F36068
:104E6000FBF78AFF10B1324B984256D1002104F172
:104E70000800FBF7DFFE074600284ED14FF001087F
:104E80004FF050092B4B0790B3612B4B06A8F361F1
:104E90002A4B84F83780069304F13C030893CDF83D
:104EA000249000F0EFFF264BA063069306A804F1C0
:104EB000E4030893079700F0E5FF224BC4F8E000F5
:104EC00039460A930AAA04F1900340460C93CDF8A0
:104ED00034900B9701F0BAF81B4A0297C4F88C0083
:104EE000CDF800802369CDE9032401936368E2686B
:104EF0002168207AFBF7F8FF044670B995F908009D
:104F0000FFF770FA95F90800FFF750FA3046FFF7FF
:104F1000B5FA20460FB0BDE8F08F102420460FB040
:104F2000BDE8F08F1949000821490008954900089B
:104F3000038000F0314900082949000824D90008FD
:104F400030D9000818D900081D4A0008D54C0008BF
:104F5000A54A000870B504464518073549420D407A
:104F6000A5F10806304600F0C5F96288331BC3F38B
:104F7000CF03D21A25F8062CA2881A4492B225F83B
:104F8000042CA18881B1A4EBC101CA804A881A44CB
:104F90004A80E2888AB1D31A9BB204EBC20425F896
:104FA000023C3046A38070BD15F8082C42F0020286
:104FB00005F8082CE288002AEDD1304625F8022CAD
:104FC00070BD00BF70B5002482B0684600F080F963
:104FD0000B4D00980B4A0C4B0C4E0D4914600860A9
:104FE0001C6030602C6000F085F92046019B2A6827
:104FF0003168013BDB0801324B802A6002B070BD92
:1050000044150020401500203C1500204C150020C0
:10501000481500202DE9F047002584B003950028AD
:1050200057D0073020F00704FBF71CFB03AB2A46E0
:1050300000934FF0FF312B468046204600F060F988
:10504000039F0546002F41D000283FD0DFF8ECA099
:105050007B88DAF80020C0EBC303013A272BCAF89B
:1050600000203AD9844204F1080953D13E46B144A4
:10507000484600F03FF9039A04F10F035188C3F347
:10508000CF03C91AA9F80210D188A9F80430002961
:105090004DD0CB1A9BB202EBC101A9F806308B8030
:1050A0009388E408B380B9F804303946F380484661
:1050B0000022748000F096F9337843F001033370D6
:1050C000DAF800300133CAF8003012E04046FBF74E
:1050D000CFFA002004B0BDE8F087844221D13E46DB
:1050E0003378394643F0010301223046337000F033
:1050F00079F9104B40461A6815440F4A1D60136831
:105100009D4288BF1560FBF7B3FA06F1080004B0B2
:10511000BDE8F08708213846FFF71CFF06460390DC
:10512000A5E708213846FFF715FF0646D8E7A9F896
:105130000610B5E7401500203C150020441500205E
:105140002DE9F04F044683B0684600F0C1F8002C0A
:1051500000F09680FBF786FA14F8083CDA0763D56E
:1051600034F8065C002D5FD0554F34F8046CD7F846
:105170000080691C08F1010CA4F1080E89B2C7F87F
:1051800000C09EB103F00202AEEBC60393F800909C
:10519000B3F806A019F0010FB3F802B063D1002AEA
:1051A00063D1AAEB0B0ABAF1010F6CD9734634F83C
:1051B000028CB8F1000F3CD0DDE9002632440EEB42
:1051C000C806964235D21EF8382012F0010204D1EA
:1051D000A8EB0508B8F1010F5DD94A1E92B200276D
:1051E00014F8085C24F8067C25F0010504F8085C36
:1051F0005A801A7867F300021A70C3F1070232442A
:10520000C2F3CF02DA80B2802E4C22680AB19342F8
:1052100025D223602C4C22680AB193421BD923600B
:105220002A4A13685B1A136003B0BDE8F04FFBF71E
:105230001FBA4A1E92B2002514F8086C24F8065CC6
:1052400026F0010604F8086C5A801A78DD8065F3B0
:1052500000021A70D8E75288002AE1D1DFE75288AD
:10526000002AD7D1D5E7002AA0D00E44B1B200263B
:1052700014F8082C22F0020204F8082C9E8096E70D
:1052800003B0BDE8F08FAA1C9344C446C7F8008061
:105290001FFA8BF18BE70CF1FF35B6F802C0728074
:1052A0000CF101020A4491B2B6F806C04A1E92B24D
:1052B0003D60BCF1000FBED006EBCC068FE700BF0F
:1052C000441500204C1500204815002040150020F2
:1052D0000249034A521AC0E9001270478051002067
:1052E000000004200846FFF795BE00BF0846FFF700
:1052F00027BF00BF00230380C0F80230C38070477F
:1053000030B50025039C25604D1C08BF082132BB29
:10531000324A1268002A5BD04FEAC30C53880CEB68
:10532000C30304E002EBC30253880CEBC30392F8FF
:1053300000E01EF0010F0DD1834202F1080E09D3E7
:10534000BEFBF1F501FB15E505EB000E002D3DD090
:105350009E453FD9D388002BE4D1184630BD204A62
:105360001268002A34D04FEAC30C538808290CEB8A
:10537000C30326D0494202E053880CEBC30392F8E2
:1053800000E01EF0010F0DD198420BD85588013571
:1053900002EBC505A5EB000E0EEA010EA5EB0E050E
:1053A000AB4219D29588A2EBC502002DE4D1284664
:1053B00030BD9388A2EBC302002BCED053880CEBF8
:1053C000C3031178C907F4D49842F2D8226030BDE3
:1053D000104630BD7046F9E72846F7E74C15002027
:1053E00048150020F0B5284E0446336887B04AB10E
:1053F000994211D0002933D0244F3B68994209D1FA
:10540000234D1EE09942214B08BF30601A688A4242
:1054100008BF186007B0F0BD1D4D2B684BB134B309
:1054200023461A78D20705D5DA8803EBC203002A8F
:10543000F7D10023154F33603B688B4201D0002920
:10544000E8D12B6843B1CCB12378DB0705D5A3881D
:10545000A4EBC304002BF7D100243C6007B0F0BDDF
:105460000B4D2B68002BDAD1084F3360F4E704A80A
:105470000191FFF72DFF049B0199D2E702A8FFF7E6
:1054800027FF3C68E0E700BF4C15002048150020CE
:105490004415002070B5FBF7E5F8144E0546347846
:1054A000D4B9134B134A1C60134B14601C8000F0DA
:1054B0001FFA012000F0A4FA00F0E6FA0F4B0246B2
:1054C000186070B1234640F2E7310D4807F006F945
:1054D00001230C4C337020602846FBF7C9F80020EC
:1054E00070BD2846FBF7C4F8232070BDB5500020DE
:1054F0005415002058150020A85000205C150020ED
:1055000018FCFFFF50150020002861D0F8B50446B4
:10551000FBF7A0F8054600F025FA344FDFF8D4E099
:105520003E68DEF800108446411A002E5BD031B18F
:105530003246002053698B4212D35B1A5361B44246
:10554000CEF800C046D0334601E09C420ED01A4649
:105550009B68002BF9D12846FBF780F80220F8BDA4
:1055600050619268C91A002AE4D1E8E7A368936001
:10557000FBB130465A696169B4420A445A6118D194
:105580004369DBB9022000F03BFA022000F058FA30
:10559000002117480A463B68017005E09B6843B14B
:1055A00059690A44012A04D8D9888907F6D5012304
:1055B00003702846FBF752F80020F8BDDEF80040E3
:1055C00002201C4400F01CFA204600F0D7F9DFE767
:1055D00022207047A3683B600BB11846CAE702203F
:1055E00000F018FAE5E7CEF80000B4E758150020FF
:1055F000B4500020541500202DE9F047C60704469A
:1056000003D4A0073FD4BDE8F087A14ADFF8908219
:105610001388A04F01339BB2138000F0A3F93968BF
:10562000D8F80060411A002E00F05E8131B1324698
:10563000002553698B4220D35B1A5361736938602C
:10564000002B40F01581022000F0DAF9022000F072
:10565000F7F9002190480A46D8F80030017006E0BA
:105660009B68002BCDD059690A44012AC9D8D98832
:105670008D07F5D501230370C3E755619268C91AF8
:10568000002AD6D1DAE7FAF7EDFF064600F06AF90C
:10569000DFF80C827F4FD8F800403968411A002C9F
:1056A00000F01E8139B12246002553698B42C0F0BB
:1056B000BF805B1A53614FF0000A6369D1465546BB
:1056C0003860002B40F0878023461A792179914277
:1056D00088BF1C469B6813B15A69002AF5D0304632
:1056E000FAF7C6FFD4F810A0BAF1000F46D156461B
:1056F000FAF7B8FFD8F800304BB19C4203D1C3E0B1
:105700009C4200F09C801A469B68002BF8D1FAF767
:10571000AFFF2369002B3DD0A38BBAEB06066BB11C
:10572000E28B13449BB2B3F57A7FC0F09F80A3F560
:105730007A73E383A369013E013BA361FAF792FF09
:10574000D8F8002033466661002A00F08B804FF0C5
:10575000000C06E096685B1A94466361002E78D0D0
:10576000324651699942F5D9BCF1000F40F0898069
:10577000C8F80040C91AA26051616CE000F0F2F86C
:10578000A269861AF317B24575EB0303B0DA2369F1
:105790001344A361E368B4F806A009F1010913B149
:1057A000204621689847FAF75DFF064600F0DAF8D0
:1057B0003968D8F80040411A002C00F0818029B1E6
:1057C000224653698B422DD35B1A5361636938605B
:1057D000002B3FF479AF0021304AB9F1010F11706D
:1057E00060D0002B65D03C6802201C4400F008F912
:1057F000204600F0C3F8002127480A46D8F80030B8
:10580000017005E09B6843B159690A44012A04D834
:10581000D9888907F6D5012303703046BDE8F047E3
:10582000FAF726BF55619268C91A002AC9D1CDE797
:1058300055619268C91A002A7FF437AF3BE7A16827
:10584000916000293FF463AF4B69626913444B6177
:105850005DE79460A660A36922691344A361FAF727
:1058600007FF97E7A260C8F80040F4E7E38365E725
:105870003D6802201D4400F0C3F8284600F07EF881
:10588000E7E6CCF8084075E7A168C8F80010D8E74B
:10589000A850002054150020B4500020B350002020
:1058A000581500201AF0020F9BD082F80090002BB0
:1058B00099D1022000F0A4F8022000F0C1F89AE784
:1058C0000A4BB9F1010F38601C7003D0022000F0C0
:1058D000A1F8A2E71AF0020FF8D083F80090F5E7DC
:1058E000024B38601C70F1E738608AE6B350002044
:1058F00010B50123002486B01848ADF80830CDE972
:1059000003448DF804408DF80A400594FEF700FB2F
:1059100001A8FEF747FA204602A98DF80840FEF7D5
:105920009BFA0F212046FEF7B9FA0F212046FEF719
:10593000BBFAFEF77DFA0A4B01E0DA6912B15A6848
:10594000D207FAD40022064B43209A61FEF74AFDA3
:105950004320FEF72BFD06B010BD00BF90D8000815
:1059600000800A50044B01E0DA6912B15A68D2078C
:10597000FAD4014B9869704700800A50F8B5044684
:10598000FAF768FE1C4B054601E0D96911B1596868
:10599000CA07FAD40021184B08469F69FEF792FA0D
:1059A00006460020FEF786FA830702D4F31B032B7A
:1059B0001ED90021E31B022B98BFFC1C0846B4F142
:1059C000FF3F2CBF2246621EFEF78CFA0221002008
:1059D000FEF75EFA2846FAF741FE084B1A7832B114
:1059E000002005498A6C42F001028A641870F8BDF3
:1059F000BE42EFD1DDE700BF00800A5070510020A9
:105A000000F00101830748BF41F002010020FEF7CA
:105A10003FBA00BF830700F0010109D50120064B02
:105A2000064A1870936C41F0020123F0010393645D
:105A30000020FEF733BA00BF7051002000800A50EA
:105A4000830702D50222014B1A64704700900A5066
:105A500038B5FAF707FE04460020FEF72BFA014698
:105A6000830700F0010548BF45F00205002001F062
:105A70000301FEF719FA2846FFF7BEFD2046BDE8F0
:105A80003840FAF7F5BD00BF00B5054B83B0187973
:105A900001A9FEF737FA019803B05DF804FB00BFD7
:105AA000ACD8000808B502F013FE02F029FE02F09F
:105AB00035FE02F03DFEBDE8084002F03BBE00BFEF
:105AC00002F01CBE10B50446FAF7E0FE0E4BA0F53E
:105AD0007A729A420ED80D4B4FF47A71A3FB0023D1
