:020000040800F2
:1000000000100020BD0400085F8300085F83000823
:100010005F8300085F8300085F8300085F83000838
:100020005F8300085F8300085F830008719A0008FF
:100030005F8300085F830008019A000851B7000839
:100040005F8300085F8300085F8300085F83000808
:100050005F8300085F8300085F8300085F830008F8
:100060005F8300085F8300085F8300085F830008E8
:100070005F8300085F8300085F8300085F830008D8
:100080005F8300085F8300085F8300085F830008C8
:1000900005450008BB8E00085F8300085F830008E9
:1000A0005F8300085F8300085F8300085F830008A8
:1000B0005F8300085F8300085F8300085F83000898
:1000C0005F8300085F8300085F8300089D0E0008BF
:1000D0005F8300085F8300085F830008AD0A0008A3
:1000E0008D0A00085F8300085F8300085F830008B3
:1000F0005F8300085F8300085F8300085F83000858
:100100005F8300085F8300085F8300085F83000847
:100110005F8300085F8300085F8300085F83000837
:100120005F8300085F8300085F8300085F83000827
:100130005F8300085F8300085F8300085F83000817
:100140005F8300085F8300085F8300085F83000807
:100150005F8300085F8300085F8300085F830008F7
:100160005F8300085F8300085F8300085F830008E7
:100170005F8300085F8300085F8300085F830008D7
:100180005F8300085F8300085F8300081DB70008D5
:100190005F8300085F8300085F8300085F830008B7
:1001A0005F8300085F8300085F8300085F830008A7
:0401B0005F83000861
:1001C000013800D0FCE770470348044B834202D05B
:1001D000034B03B118477047EC540020EC54002047
:1001E00000000000064B0749C91A891048BF0131B9
:1001F000491003D0044B0BB101481847704700BFAA
:10020000EC540020EC5400200000000010B5064C17
:10021000237843B9FFF7D8FF044B13B10448AFF379
:1002200000800123237010BD3E2400200000000048
:10023000D8CB000808B5054B1BB105490548AFF3FD
:100240000080BDE80840FFF7CDBF00BF0000000000
:1002500000100020D8CB0008A3F5803A704700BFFB
:10026000174B002B08BF134B9D46FFF7F5FF0021EE
:100270008B460F461348144A121A09F08DF90E4B9B
:10028000002B00D098470D4B002B00D09847002042
:10029000002104000D000D48002802D00C48AFF3E7
:1002A000008007F01BFC2000290008F008FE07F082
:1002B0003DFB00BF0000080000000000000000003F
:1002C00000100020001000201C540020000000003E
:1002D0000000000008B5044808F0C4FA08F0B1FDB9
:1002E000BDE8084000F008B8C4C30008014808F0A1
:1002F000B9BA00BFC4C300082DE9F04F544E97B0FF
:10030000354609AC0FCD0FC42B6806F114052360E8
:100310000EAC0FCD0FC495E80F00DFF84C8184E8D8
:100320000F004C4808F09EFA404608F09BFA4FF444
:100330008073494FADF83C30484B38460B9309A9C0
:100340000EAB0D9302F088FC0421B6F834B00DEB2F
:1003500001000122ADF804B000F0F4F9B6F836A0BF
:100360000022012102A8ADF808A000F0EBF9B6F8D0
:1003700038900122042103A8ADF80C9000F0E2F9B6
:10038000758F0122042104A8354CADF8105000F0FF
:10039000D9F9344B4FF44870C4F8C834A3F500338E
:1003A000C4F8C4344FF00213C4F8CC341C23C4F88E
:1003B000B43403F0DBFF08A8ADF8205000F024FAB5
:1003C000142003F0D3FF08A8ADF8205000F0F0F996
:1003D000232003F0CBFF08A8ADF8205000F014FA5A
:1003E000B921384608F070F908A8ADF8205000F09F
:1003F000DFF9002205A81146ADF814B000F0A2F90B
:10040000002206A81146ADF818A000F09BF90122C1
:10041000002107A8ADF81C9000F094F901220021FA
:1004200008A8ADF8205000F08DF9384602F00AFA1D
:1004300000234046C4F8B434C4F8C834C4F8C43403
:10044000C4F8CC3408F011FA17B0BDE8F08F00BF43
:10045000D8C20008C4C3000800C00850E070720091
:1004600000C0035002000300D0C30008024B5868CC
:10047000C0F38060704700BF00ED00E0BFF34F8F16
:100480000549064BCA6802F4E0621343CB60BFF330
:100490004F8F00BFFDE700BF00ED00E00400FA054C
:1004A0000348044A0449121A921007F059BF00BFCA
:1004B000B4010008B40100081C54002008B500F085
:1004C0002FF8FFF7EDFF124B12498B4212D3002099
:1004D000114B12498B4218D3FFF7C2FE186850F82F
:1004E0002240586840F82240013298688242F5D391
:1004F0000C33EAE70022F8E71C6844F822000132D6
:100500005C68A242F8D30833E4E70022F8E700BFB2
:10051000E0CB0008ECCB0008ECCB0008ECCB0008EB
:100520004FF48041144B154A70B59A60D3F8882077
:10053000134D42F47002C3F88820124A05F50054A6
:1005400091664FF0FF3222666FF4003262660D2230
:10055000A2660222C3F8D020BFF34F8FBFF36F8F84
:100560004FF44036002003F05DF90020E66003F010
:100570003DF92E6170BD00BF00ED00E000000008F5
:100580000080004400900050014B1860704700BF8D
:1005900020540020054B1860054B1B6F03F0070328
:1005A000032B01D109F09CBA704700BF28540020EA
:1005B00000800050002307B52948019308F052F944
:1005C0004FF44073012204216846ADF8003000F07A
:1005D000B9F80122234B0520C3F8442401A90BF0EC
:1005E00027F8002839D1204BD3F8F02042F001023F
:1005F000C3F8F020D3F8FC2042F08072C3F8FC204E
:100600001A4AA3F55D431A60019B194A03F5D523E5
:1006100003F2FC43B3FBF2F3164A013B13610223DE
:10062000C2F8F0304FF48073C2F804334FF06043E7
:10063000114AC3F8B02F114AC3F8802ED3F8002E08
:1006400042F48072C3F8002EFF2283F82020D3F8F2
:10065000002E22F48072C3F8002E03B05DF804FB74
:10066000C4C3000800D0035000ED00E0FF030040C9
:10067000F8590D00000004E055CEACC5090001009A
:100680004FF06043D3F8802E30B5D20715D5012442
:100690000B4D8440D5F8FC2042F08072C5F8FC2058
:1006A000D3F8002E2243C3F8002E53F82020002A4E
:1006B000F0D003F82010002030BD1120FCE700BF6F
:1006C00000ED00E02DE9F04104464FF001080C2553
:1006D0000D4E0CB9BDE8F08194FAA4F0B0FA80F0A8
:1006E0000F2808FA00F2C8BF103824EA0204CABF73
:1006F00005FB006205FB0062B4325768002FE8D0AA
:100700009168C0B2B847E4E71810002008B50C485B
:1007100008F0A8F8272003F077F828B1272003F085
:1007200081F8272003F062F8282003F06DF828B143
:10073000282003F077F8282003F058F8002008BD9F
:10074000C4C300082DE9F0410E461746054628B3FC
:100750000F2925D80378E3B1013BDBB2022B1BD86C
:10076000114A32F813306A78D340DB0718D50F4BA3
:10077000D3F81043B4B90AF04FFF80463A462846F2
:10078000314602F039FD40460AF041FF2046BDE8FF
:10079000F08143F6FF73E6E70023E4E72224F5E760
:1007A0002124F3E70224F1E714C3000800C003503A
:1007B00010B50446F8B10378C3B1013BDBB2022B9C
:1007C00017D80F4A32F813306278D340DB0714D5BC
:1007D0000AF022FF0122637821789A40302359439E
:1007E000084B5A500AF013FF002010BD43F6FF7368
:1007F000EAE70023E8E72220F7E72120F5E700BF3A
:1008000014C3000840D0035010B50446F8B1037873
:10081000C3B1013BDBB2022B17D80F4A32F81330B9
:100820006278D340DB0714D50AF0F6FE0122637824
:1008300021789A4030235943084B5A500AF0E7FE7A
:10084000002010BD43F6FF73EAE70023E8E722200B
:10085000F7E72120F5E700BF14C3000840E003508C
:1008600010B50446F8B10378C3B1013BDBB2022BEB
:1008700017D80F4A32F813306278D340DB0714D50B
:100880000AF0CAFE0122637821789A403023594346
:10089000084B5A500AF0BBFE002010BD43F6FF7310
:1008A000EAE70023E8E72220F7E72120F5E700BF89
:1008B00014C3000840F0035038B50D46044628B371
:1008C00021B30378EBB1013BDBB2022B1CD8114AF8
:1008D00032F813306278D340DB0719D50AF09CFE5A
:1008E00030222378534303F1A04303F570331B6C8C
:1008F0006278D34003F001032B700AF088FE0020D9
:1009000038BD43F6FF73E5E70023E3E72220F7E76E
:100910002120F5E714C300082DE9F0410D461646E5
:1009200098460446002851D000294FD0017800296C
:1009300041D04B1EDBB2022B40D8264A32F813209E
:100940006378DA40D20701D4FF2941D1022E01D9C0
:10095000042E3DD10AF060FE23780746FF2B05D018
:1009600032462046296802F08DFC28602B6801334E
:1009700009D12378FF2B06D1174B6078D3F82414C4
:1009800007F022FF286029684B1C19D00C23134A5A
:1009900003FB0122069BC2F8048093602378FF2B9F
:1009A00004D001230E4A8B40C2F8243438460AF0A2
:1009B0002EFE002008E043F6FF72C1E70022BFE7E9
:1009C00038460AF024FE2D20BDE8F0812220FBE706
:1009D0002120F9E714C3000800C0035018100020BC
:1009E00000D003502DE9F0410D4690461F460446C5
:1009F000002841D000293FD0027892B3531EDBB2C9
:100A0000022B31D81E4931F813106378D940C90739
:100A100001D4FF2A32D10AF0FFFD23780646FF2BCE
:100A200005D042462046296802F0B2FC28602A68B8
:100A3000531C1BD00C23134903FB0211069BC1F866
:100A4000B870C1F8BC302378FF2B05D001231032D9
:100A500093400D4AC2F8243430460AF0D8FD0020F5
:100A600008E043F6FF71D0E70021CEE730460AF0F8
:100A7000CEFD2D20BDE8F0812220FBE72120F9E703
:100A800014C300081810002000D0035008B502F06D
:100A900099FB054B00F0553020F0A040C3F820042E
:100AA000BDE80840FFF70EBE00E0035008B502F0B5
:100AB00089FB054B00F0AA3020F02040C3F8200449
:100AC000BDE80840FFF7FEBD00E0035013B5044643
:100AD0000A4807F0C7FEA2780421B2FA82F223780E
:100AE00052098DF8043063780DEB01008DF8053064
:100AF000FFF728FE002002B010BD00BFC4C30008ED
:100B00002DE9F04F9A46554B85B01B7806460F46A7
:100B10001546DDF83C909DF844B0DDF85080002B80
:100B200000F08C80072A00F28B800E9B002B00F0D7
:100B30008780B9F1000F00F08380129BB3F5006F3E
:100B40007EDC012802D1109B002B79D0444B03EBB3
:100B500005131B7B002B75D0424C102200216846E8
:100B600008F01AFD04EB45141022002F58D1394625
:100B7000204608F011FD43F210036380BBF1000F23
:100B800003D1E37843F00303E370364A0E9B02EB94
:100B9000451CCCE90193129B6901581E9DF84C300D
:100BA000C0F30A0003F003039B0643EA001E5358F8
:100BB0002D48012E00EA03004EEA0003CDF800A004
:100BC000535041D113230CF1100ECCF80C309CE89B
:100BD0000F008EE80F006FF00301DCF81C20109B63
:100BE00061F39F02012FCCF81C20CCF8143003D104
:100BF000CCF81890CCF804300027194A290102EBF0
:100C0000051342F80180159A28465A606946224623
:100C10009F605E7302F0EEF9384605B0BDE8F08FD4
:100C20000021204608F0B8FC4FF444736380BBF108
:100C3000000FAAD1E37843F03003A5E70B48ECE7B7
:100C40000B48EAE70B48E8E7B8F1000FD4D19CF86D
:100C5000023068F304138CF80230CDE73F24002003
:100C600080120020801100200F80FFF3028000F02E
:100C7000018000F0078000F038B5124B05461B7864
:100C8000DBB1E0B10AF0C8FC0F4A00231146147B27
:100C900054B92B6001251A0101EB03131D738C500D
:100CA0000AF0B5FC204638BD0133082B02F11002D2
:100CB000EDD10AF0ACFC0548F5E70548F3E7054837
:100CC000F1E700BF3F24002080120020048000F0E4
:100CD000028000F0018000F038B50AF09DFC00238E
:100CE00005460B4A147B6CB90133082B02F1100244
:100CF000F8D102F02BF9074B28461C700AF087FC4C
:100D0000204603E028460AF082FC034838BD00BFB5
:100D1000801200203F240020058000F00D4B10B50C
:100D20001B78044693B1072812D80AF075FC0A4BC9
:100D300003EB04131A7B2AB100241C730AF067FC2E
:100D4000204610BD0AF063FC0448FAE70448F8E7BF
:100D50000448F6E73F24002080120020068000F0BF
:100D6000028000F0018000F0154B13B518680023D5
:100D700001908DF804300AF04FFC124B1C7824B11E
:100D80000AF045FC104802B010BD01221A700AF0AA
:100D90003EFC0E4B01A81C731C7783F82C4083F893
:100DA0003C4083F84C4083F85C4083F86C4083F807
:100DB0007C4008238DF8073002F0ECF82046E2E78B
:100DC0001AC300083F240020038000F08012002096
:100DD000F8B50D4D2D7885B1072810DC0B4D0601B7
:100DE00005EB0014277B67B1AB510025069BA5607E
:100DF000636002F0FFF82846F8BD0548FCE70548A7
:100E0000FAE70548F8E700BF3F24002080120020E1
:100E1000028000F0018000F0078000F00A4A08B567
:100E200012785AB107280BD8084A02EB00131B7B33
:100E300043B1002102F0A0F8002008BD0448FCE7FF
:100E40000448FAE70448F8E73F2400208012002015
:100E5000028000F0018000F0078000F00A4A08B527
:100E600012785AB107280BD8084A02EB00131B7BF3
:100E700043B1012102F080F8002008BD0448FCE7DE
:100E80000448FAE70448F8E73F24002080120020D5
:100E9000028000F0018000F0078000F0184B2DE97F
:100EA000F0411F6D5B6D1F4000D5FEE70126002558
:100EB000144CDFF85880374218D02368C8F85060C7
:100EC000A3B1A168284601316268A1609847637B9D
:100ED000012B0BD150B90C4B03EB45131A7B60F37C
:100EE00041021A731A7F60F341021A770135082D07
:100EF0004FEA460604F11004DDD1BDE8F08100BFE1
:100F000000000450801200208011002000200450B6
:100F10001FB54FF6FF730F28ADF80830039009DCBA
:100F200000910022084B03A902A8FFF7F5FC05B0C9
:100F30005DF804FB1038039000910022024B03A9D6
:100F400002A8FFF74FFDF2E7AF8400082DE9F04754
:100F50001E46002386B080F854300E9B044643633F
:100F600090F85C3088469146C663002B37D14FF429
:100F7000406305686B614369092B03D905F12C03B4
:100F8000443506E00BBF05F1200305F12403383595
:100F90003C3567694FF0010A082F94BF00270127ED
:100FA000A26D0132A265124A0494CDE90272019643
:100FB000CDF800A04A46216BA06A07F05EFA002334
:100FC000CDE90167CDE90333CDF800A043462A46B9
:100FD000E16A606A07F037FA06B0BDE8F087012BD6
:100FE000FAD1006807F0FCFA256805F13C03C7E771
:100FF000B984000838B50546B0B1B9B1B2B1B2F59F
:10100000006F13DC0AF008FB95F84C3003F0FF0486
:101010001BB10AF0FCFA064838BD012385F84C30B4
:101020000AF0F5FA2046F7E70248F5E70248F3E749
:10103000032000F0012000F0022000F02DE9F04331
:101040000B68994A8FB0934205460C460DF118087B
:101050000BD0964A934208D002F58042934204D0C6
:1010600002F58042934240F0D4804746904ECDF83E
:1010700014800FCE0FC796E80F00103687E80F00D8
:101080000FCE01AF0FC7002D00F0B78184220021E1
:10109000284608F081FA2368834A93420ED0834A97
:1010A00093422CD002F5804293422ED002F580422A
:1010B000934230D07F480FB0BDE8F0834FF47022E8
:1010C00000267D487D492B600123A44685F85C30CD
:1010D0002F1DC5E90B122865BCE80F000FC79CE85F
:1010E0000F0087E80F00637E012B08BF8DF81D30CD
:1010F000A37E032BDED8DFE803F0171483854FF4BB
:10110000801201266E486F49DDE74FF498120226DF
:101110006D486E49D7E74FF4A01203266C486D491D
:10112000D1E704238DF81230227EE368012A4FF0C4
:10113000000269D168498DF811208B429CBF0523BC
:101140008DF83530654B6648039307F08BFB2B6DAC
:10115000986807F087FB2369DA1F092AAAD8063B9B
:101160008DF81030237E2BB9E37EB3FA83F35B094D
:101170008DF81C300121284607F0BDF900289AD1CE
:10118000237A2279760142EA034206F1A04303F56D
:101190007033C3F8AC24617A627942EA0142C3F841
:1011A000A424A17AA27942EA0142C3F8A824E27EEB
:1011B0006ABBE17AE27942EA0142C3F898241D222F
:1011C0002068C3F8942401A901F046FD0AF024FA2E
:1011D000444B1A78002A40F0058101221A700AF067
:1011E00016FA03F053F8FFF7BFFD002105F12400C4
:1011F000FFF742FD0146002800F0F7803A485AE721
:1012000002238FE706238DE78DF834209BE71C220D
:10121000D6E74646354F0FCF0FC697E8070086E85A
:101220000700002D00F0E98084220021284608F004
:10123000B3F923682E4A93420FD002F580429342BD
:101240002BD002F5804293427FF434AF4FF4B012BA
:101250004FF002092748284905E04FF480224FF05B
:101260000009264826492E462746C5E90B1228655F
:1012700046F8043B0FCF0FC697E80F0086E80F0033
:10128000637E012B08BF8DF82630A37E032B3FF62B
:1012900011AFDFE803F03F3B92954FF4A8124FF0F7
:1012A000010918481849DEE70000015B00C008503A
:1012B00020C30008022000F02CC4000801000F0029
:1012C00020C400080100100014C40008010013002D
:1012D00008C40008010014003F4B4C0040420F00BE
:1012E000C4C3000840240020092000F054C30008B3
:1012F00000000A50D8C3000804001600F0C300081C
:1013000002000400E4C30008020015004FF400735B
:10131000ADF82830237E3A48012B03BF00238DF817
:1013200025304FF4E133E368089307F09BFA2B6D07
:10133000986807F097FA23691A1F0C2A3FF6BAAE8D
:10134000033B414620688DF8243007F0ECF9A3698F
:101350006FF3172323B92A68936843F480339360AB
:10136000237A2679607946EA0346637AA17940EACE
:101370000340E77EA37A234A41EA03414FEA491337
:101380000FBB1A44C2F83868C2F83008C2F83418E3
:10139000E17AE27903F1A04342EA014203F57033B6
:1013A000C3F824281D22C3F820280121284607F06D
:1013B000A2F800287FF47FAE08E74FF48073A7E718
:1013C0004FF44073A4E71344C3F83868C3F83008F7
:1013D000C3F834181C2309F141094FEA491942F8AE
:1013E0000930E2E70AF013F9FDE605F12800FFF7FE
:1013F00043FC00283FF45FAE00E703485BE600BF14
:10140000C4C3000800C00350012000F02DE9F341DF
:101410001F46037F0546012B8846164611D03A46E3
:10142000FFF7E8FD044640B96EB1089B32460093D1
:1014300041463B462846FFF789FD204602B0BDE8FD
:10144000F081024CF9E7024CF7E700BF082000F0FA
:10145000022000F070B50D46044600B30AF0DCF837
:1014600094F84C30064603F0FF011BB10AF0CFF8A8
:101470000C4870BD94F85C3025614BB92A4619467A
:10148000206807F040F930460AF0C1F80020F0E784
:10149000012BF8D12A46206801F0FEF9F3E7024853
:1014A000E7E700BF032000F0012000F0044BD3F871
:1014B0008420D206FBD4D3F88400C0F38110704797
:1014C0000040005038B5174B0546D3F828310C467C
:1014D00003F00703013B052B20D8DFE803F00313DB
:1014E0001B0F0B1708F0D6FA052305B1286004B1CD
:1014F000236038BD08F0CEFA0623F6E708F014FBA7
:101500000723F2E708F006FB0323EEE708F002FBEF
:101510000423EAE708F0FAFA0223E6E70023184674
:10152000E3E700BF00800050002337B50193164B5E
:101530000546D3F820320C4603F00703042B21D8CC
:10154000DFE803F0030B11161B0001230DB1019A14
:101550002A6004B1236003B030BD002101A8FFF769
:10156000B1FF1223F2E708F0DFFA07230190EDE75D
:101570000AF058F80A230190E8E708F01DFB092358
:101580000190E3E70023E1E70080005038B5104BFD
:101590000546D3F850320C4603F00303022B12D059
:1015A000032B08D0012B0AD00023184605B1286070
:1015B00004B1236038BD0AF038F80C23F6E70AF0CE
:1015C00031F80A23F2E708F0F7FA0923EEE700BF43
:1015D0000080005038B5104B0546D3F880300C46DB
:1015E00003F00303022B0BD0032B0DD0012B0FD1E3
:1015F00008F056FA0E2305B1286004B1236038BD07
:1016000008F092FA0723F6E708F044FA0623F2E717
:1016100000231846EFE700BF0080005038B5104B9C
:101620000546D3F800310C4603F00303022B0BD020
:10163000032B0DD0012B0FD108F06CFA032305B159
:10164000286004B1236038BD08F0B6FA0923F6E734
:1016500008F066FA0823F2E701230020EFE700BF55
:101660000080005038B5184B0546D3F820010C46D1
:1016700000F00700062823D8DFE800F0040A0E1661
:10168000121A1E00012305B1286004B1236038BD81
:1016900008F000FA0523F6E708F03CFA0323F2E726
:1016A00008F042FA0723EEE708F030FA0223EAE7EF
:1016B00008F0F0F90623E6E708F02CFA0423E2E745
:1016C00000231846DFE700BF0080005038B5104BFC
:1016D0000546D3F840310C4603F00303022B0BD030
:1016E000032B0DD0012B0FD109F09CFF0A2305B16C
:1016F000286004B1236038BD08F05EFA0923F6E7DC
:1017000009F093FF0C23F2E701230020EFE700BF6D
:1017100000800050002337B50193164B0546D3F8DF
:1017200060320C4603F00703013B032B1FD8DFE8B0
:1017300003F0020E1914002101A8FFF793FF1023F4
:101740000DB1019A2A6004B1236003B030BD0021BD
:1017500001A8FFF7BBFF1123F2E708F0E5F9072323
:101760000190EDE708F0D2F902230190E8E70023A9
:10177000E6E700BF00800050002337B50193164B09
:101780000546D3F894320C4603F00703013B032BC4
:101790001FD8DFE803F0020E1914002101A8FFF79B
:1017A00061FF10230DB1019A2A6004B1236003B0D8
:1017B00030BD002101A8FFF789FF1123F2E708F0EF
:1017C000B3F907230190EDE708F0A0F90223019097
:1017D000E8E70023E6E700BF0080005038B5104B73
:1017E0000546D3F860310C4603F00303022B0BD0FF
:1017F000032B0DD0012B0FD109F014FF0A2305B1E3
:10180000286004B1236038BD08F0D6F90923F6E753
:1018100009F00BFF0C23F2E701230020EFE700BFE4
:10182000008000502E4B98424AD022D82D4B98422F
:1018300040D014D82C4B984239D00AD82B4B984220
:1018400032D02B4B98422FD02A4B98422CD00020DC
:101850007047294B9842FAD1284B186F7047284B94
:1018600098422AD0274B9842F1D1244BD3F88000DC
:101870007047254B98422BD009D8244B984223D04F
:10188000234B9842E3D11D4BD3F88C007047214B7A
:10189000984221D003F5740303F510539842D6D132
:1018A000164BD3F898007047144B986D7047134B44
:1018B000586E7047114B586F7047104B986F7047B8
:1018C0000E4BD3F8840070470C4BD3F88800704758
:1018D0000A4BD3F890007047084BD3F89400704738
:1018E0000048E8010024F400C0CF6A0080841E0094
:1018F00000093D0040420F00405DC6000080E00F3F
:10190000C0EA210180BA8C01007E560380D54302D3
:10191000006CDC020090D00373B50D460021114B22
:101920000191D3F88041064604F00304022C13D041
:10193000032C0CD0012C13D101A8FFF793FE102427
:101940000EB1019B336005B12C6002B070BD08F090
:10195000EBF807240190F3E708F0D8F80190EFE7DF
:101960000C46EDE70080005038B5104B0546D3F823
:1019700040320C4603F00303022B0BD0032B0DD097
:10198000012B0FD109F04EFE0A2305B1286004B1E6
:10199000236038BD08F010F90923F6E709F045FE89
:1019A0000C23F2E701230020EFE700BF0080005086
:1019B00038B5144B0546D3F800020C4600F007007A
:1019C00004281BD8DFE800F003090D1115000123DE
:1019D00005B1286004B1236038BD09F023FE0A2355
:1019E000F6E708F0E9F80923F2E709F01EFE0C23F8
:1019F000EEE708F075F80F23800AE9E700231846A0
:101A0000E6E700BF0080005038B5144B0546D3F818
:101A100008020C4600F0070004281BD8DFE800F09D
:101A200003090D111500012305B1286004B12360DD
:101A300038BD09F0F7FD0A23F6E708F0BDF80923E1
:101A4000F2E709F0F2FD0C23EEE708F049F80F2366
:101A5000800AE9E700231846E6E700BF008000504F
:101A6000B0F5207F1FD009D8B0F5007F15D003D87E
:101A700068B1B0F5C07F0AD000200CE0B0F5607FFF
:101A8000FAD10B4BD3F88000C0F3011003E0084BF0
:101A9000186FC0F3033001307047054BD3F8900046
:101AA000C0F30460F7E7024B186FC0F38020F2E741
:101AB0000080005002464FF48030104B10B59866FD
:101AC0000020FFF7CDFF504341F671320C4BDC692B
:101AD000DA635A6804F4803422F4401259B909498F
:101AE000884294BF00200120000502435A600CB1D7
:101AF0000022DA6310BD0449F2E700BF00900050F5
:101B000000000350005A6202002D31014209531EA9
:101B1000022B96BF074B002303EB820300F01F004C
:101B200029B103F58053012282401A60704703F502
:101B30000053F8E7608000501FB50021B0F5807FAA
:101B40000446CDE9001100F0CF803BD8002800F01A
:101B5000A480A0F12004602C44D8602C42D8DFE897
:101B600004F09CA49CA4B4B4B4B4B4A4BE4AD46A93
:101B70004AA4A4A44141414141414141A4A4A47CBF
:101B8000DEA4414141414141414141414141E3B430
:101B90009C9C9CD94A4A88E85FB9414141414193A4
:101BA0009C41B4B4B4B4B4B9B9A441A4A441414172
:101BB0004141414141414141414141414141414115
:101BC00041419800B0F5E06F00F0A98038D8B0F539
:101BD000607F75D01AD8B0F5007F61D005D8B0F518
:101BE000C07F5AD0009804B010BDB0F5207F5CD003
:101BF000B0F5407FF6D107F073FF02464FF4207036
:101C0000FFF72EFFB2FBF0F2520857E0B0F5B06FCD
:101C100065D00AD8B0F5806F57D0B0F5A06FE1D18C
:101C200000216846FFF780FCDCE7B0F5C06F6CD0A0
:101C3000B0F5D06FD6D100216846FFF7B9FED1E7E5
:101C4000B0F5186F70D00DD8B0F5086F7FD0B0F533
:101C5000106F5FD0B0F5F06FC4D100216846FFF778
:101C6000BDFDBFE7B0F5286F63D007D8B0F5206F92
:101C7000B8D100216846FFF74DFDB3E7B0F5406FDE
:101C800028D0B0F5486FADD100216846FFF774FD4C
:101C9000A8E707F005FF0090A4E707F021FFFAE7A7
:101CA00007F0FEFE0246204604E007F019FF024658
:101CB0004FF42070FFF7D4FEB2FBF0F2009291E7F0
:101CC00001A8FFF787FC019AEDE700216846FFF7BE
:101CD000C9FC87E700216846FFF7F4FB82E7002193
:101CE0006846FFF719FE7DE74FF0E02302911B697C
:101CF0005B0705D507F0F4FE0290029B009371E7A5
:101D000003A902A8FFF7E2FCF7E700216846FFF706
:101D1000DDFC67E700216846FFF776FE62E70021F9
:101D20006846FFF721FE5DE700216846FFF72EFCBD
:101D300058E70021084B0391D3F8703203F00303F6
:101D4000012B02D103A8FFF7C1FC039BD6E768462D
:101D5000FFF764FC46E700BF0080005008B5802014
:101D6000FFF7EAFE034B98429EBF4FF48032024BCE
:101D70001A6708BD005A620200A000501FB5034652
:101D80000020B3F5807F019000F0F48000F28E8097
:101D9000662B7DD83C2B06D8243B092B5ED90198B5
:101DA00005B05DF804FB3D3B292BF8D801A252F8A1
:101DB00023F000BF971F0008C51F00089F1D0008E3
:101DC0009F1D00089F1D00089F1D00089F1D000803
:101DD0009F1D00089F1D00089F1D00089F1D0008F3
:101DE0009F1D00089F1D00089F1D00089F1D0008E3
:101DF000CF1F00086B1F00089F1D00089F1D0008D3
:101E00009F1D0008131F00089F1D00089F1D00084C
:101E10002D1F0008D91F0008D51E0008BB1F000891
:101E20009F1D00089F1D00089F1D00089F1D0008A2
:101E30009F1D0008451F00089F1D00089F1D0008EA
:101E40006B1F00086B1F00086B1F00086B1F00084A
:101E50006B1F0008BB1F0008BB1F0008092B9ED882
:101E600001A252F823F000BF6B1F00086B1F00088F
:101E70006B1F00086B1F00086B1F00089F1D0008E8
:101E8000611F00089F1D0008F31E0008A11F000825
:101E9000802B84D1594B1B6F03F00703013B032BAD
:101EA0003FF67DAFDFE803F05A535658B3F5F06FB5
:101EB00071D023D8B3F5B06F52D010D8B3F5607F8E
:101EC00077D0FFF46CAFB3F5806F4ED0B3F5A06F51
:101ED0007FF465AF002001A9FFF726FB5FE7B3F5AC
:101EE000D06F5DD0B3F5E06F6CD0B3F5C06F7FF409
:101EF00056AF002001A9FFF7E9FB50E7B3F5186FD3
:101F000065D00BD8B3F5086F4FD0B3F5106F7FF4E1
:101F100046AF002001A9FFF777FD40E7B3F5286F32
:101F20005AD008D8B3F5206F7FF439AF002001A94B
:101F3000FFF7F0FB33E7B3F5406F3ED0B3F5486FE2
:101F40007FF42DAF002001A9FFF716FC27E705233A
:101F5000019324E70323FBE70823F9E70223F7E7CC
:101F6000002001A9FFF7D8FC19E7002001A9FFF71D
:101F700079FB14E74FF0E02302901B695B0705D55E
:101F800007F0AEFD0D230393039BE1E703A902A82D
:101F9000FFF79CFBF8E7002001A9FFF71FFCFEE616
:101FA000002001A9FFF704FDF9E601A9FFF736FBC0
:101FB000F5E601A9FFF70EFBF1E6002001A9FFF706
:101FC00081FAECE6002001A9FFF7CEFCE7E600204D
:101FD00001A9FFF7DBFAE2E6084BD3F8703203F011
:101FE0000303012B04D0022B0CBF15230023AFE702
:101FF000002103A8FFF76AFB1123A9E70080005026
:102000004FF48032074B0849586E03F580535A66E7
:102010004B6A23F001034B62C3035CBF034B5A6658
:10202000704700BF008000500000085000A0005022
:1020300038B504468020FFF7A1FE032800F08A800F
:102040004FF48012544B4FF0A0615A6645F60E03D0
:10205000524AC2F88030524B99624FF4803103F5F6
:1020600080539962936DD903FCD4916D11F0804136
:10207000FBD1D4E900031B0543EA0063E07B034383
:10208000207B43EA0043607B43EA0033A07B43EAC2
:10209000801313619069D4E904531B0643EA8563F6
:1020A00000F000400343A07EE57E0343207E43EA28
:1020B0000043607E43EA00239361136AE06923F0E2
:1020C0000F03002843EA000343EA850314BF0125F8
:1020D000002543EAC5031362324D3CD194F8243005
:1020E000916A94F82000DB00294043EA40130B4337
:1020F00094F8211043EA011343F4803393622A4990
:10210000264A936D31EA0303FBD14FF080712448D6
:1021100081621369A56823F4700343EA05531361D0
:102120004FF00043836194F822300BB91F4B996242
:1021300094F823303BB94FF480321C4B9A62174A13
:10214000936D5B00FCD494F825301BB1134B184AF7
:10215000C3F8802038BD022808D11161154891616B
:102160004FF408524FF47F4106F045FA0B4994F8BA
:1021700022308A6A94F820001B062A4043EA401362
:10218000134394F8242043EAC20394F8232043EA3B
:1021900002438B62D7E700BF009000500040005A16
:1021A0000050005AC7FFFEFE030001000060005A05
:1021B000F1A7FFFF3440005A014B93F9000070472C
:1021C000D85400204FF400011B4A437810B55166E3
:1021D0004FF4D151022402F5B832516217494F2B06
:1021E0004C604FF0010428BF4F2301F580514C6033
:1021F0001169C903FCD4017843EA01235361D0E992
:1022000001131B0143EA0123417B0B43017B43EA9A
:1022100041039360C37B817B1B0143EA4113417CF3
:102220000B43017C43EA41035360837C13B16FF499
:10223000D153536210BD00BF0090005000100250F7
:10224000014B1880704700BFD2540020014B18800A
:10225000704700BFD05400204FF4800208B5184BDF
:102260005A660223174A5360936813F48033FBD1F4
:10227000012822D107F04EFC134B984215D003F5EC
:10228000122303F5F863984213D0104B00EB800241
:10229000400AB3FBF0F3520A0A49CA620B630123F6
:1022A0004B620022074B5A6008BD45F67A13084A74
:1022B000F2E745F61A03074AEEE75362F1E700BF7B
:1022C000009000500040025000F0490264666666CB
:1022D000D8B80500BBCF0500B0F5207F10B50C467F
:1022E00057D008D8B0F5007F48D003D830B3B0F548
:1022F000C07F23D010BDB0F5607FFBD12949013CE0
:10230000D1F8FC2012F080721EBFD1F8FC3023F00F
:102310008073C1F8FC302449D1F8803023F03003B9
:1023200043EA0414C1F88040002AE3D01D4AD2F8E1
:10233000FC3043F08073C2F8FC30DBE706F06AF94A
:1023400006F076F94FF48031184B174A1967136F6E
:10235000013C23F4704343EA0434146707F0C0FBE4
:102360000446FFF7A3F8C0F10201204606F05AF92F
:1023700000F036F8BDE81040FFF7F0BC0A4A4C1EEA
:10238000D2F8903023F0F85343EA0464C2F8904046
:10239000B0E7054A4C1E136F23F4806343EA84239D
:1023A0001367A7E700ED00E00080005000900050A8
:1023B00008B50121022000F02FF94FF42070FFF73B
:1023C0004FFB054B187006F025F906F031F94FF474
:1023D0008032024B1A6708BD412400200090005053
:1023E00008B54FF4C070FFF7A7FBBDE808400449EB
:1023F000884294BF012102214FF42070FFF76CBF87
:1024000080F0FA0238B5044607F06AFB0546FFF78C
:102410004DF8C0F10201284606F004F90121002020
:1024200000F03AF92CB1FFF7DBFFBDE83840FFF7C9
:1024300095BC034B4FF420701978FFF74DFFF4E77C
:10244000412400204FF4C02270B50546FFF7EAF999
:102450002F4B04465A6603F598335A68012A04D173
:102460002C494A605A689207FCD48020FFF786FC0A
:10247000052807D106F0CEF806F0DAF84FF48032DE
:10248000234B1A67244B24F040749D4235D0234BD4
:102490009D4235D007F0FEFA8542064603D9012158
:1024A000284600F0F9F81E4BDA6812F0060FFBD14F
:1024B00099689C609A68624012F4F81F23D12846FC
:1024C000FEF762F88020FFF759FC05280DD107F0D0
:1024D00007FB0446FEF7EAFFC0F10201204606F0C2
:1024E000A1F8FFF77DFFFFF739FCB5420ED8BDE834
:1024F00070400121002000F0CFB844F00074C9E71B
:1025000044F08074C6E735469960DBE770BD00BFD4
:102510000090005000E0015040420F0080841E00F7
:1025200000000150294B98423DD027D8A3F5B703AE
:10253000A3F55863984232D019D8254B98422AD037
:10254000244B984227D0244B984224D000234FF4A8
:102550000021224A23F0407351661F4A90422ED038
:102560001B4A90422ED04FF0B442936070471C4BF0
:102570009842EBD11B4BD3F8BC30E8E71A4B98429A
:1025800015D01A4B984216D0194B9842DED1154BF4
:10259000D3F8C830DBE7134BD3F8A030D7E7114BA3
:1025A000D3F8B830D3E70F4BD3F8C030CFE70D4B9B
:1025B000D3F8CC30CBE70B4BD3F8D030C7E743F0A0
:1025C0000073D0E743F08073CDE700BFC0EA21017C
:1025D00080841E0000093D0040420F000090005022
:1025E0000024F4000080E00F0048E801005A620275
:1025F00080BA8C01024A536B0342FCD1704700BF82
:1026000000800950034A0179D36E23F030030B4355
:10261000D366704700400050F8B504461C4BD3F811
:102620008420D106FBD4D3F88430C3F381139C42B9
:102630002CD007F035FA012C064602D1214605F0D0
:10264000F1FF08F0E0FF4FF00072124B07465A66A8
:10265000204605F0F2FF4FF480630D4D621E93405B
:102660002B676B6E9A0103D4D5F884309B060AD58C
:10267000384608F0C3FF022C08D13046BDE8F840C8
:10268000002105F0CFBFD5F88430EAE7F8BD00BFE0
:10269000004000500060005010B50C4608B907F02B
:1026A000FFF9074B21461B783BB1064B984204D8F3
:1026B0000120BDE81040FFF7AFBF0220F9E700BFDF
:1026C00042240020005A62024FF0004238B5244BE9
:1026D000244C5A664AF6CD33656C014605F0010577
:1026E000236430BB0120FFF785FF6368DB0708D454
:1026F000002415B11B4B1C4A1A6405F09FFF2046AD
:1027000038BD1A4B58600846194B226BD20705D4C6
:10271000984201D10724ECE70130F6E79842E7D16F
:10272000F8E70132236B13F0080305D08A42F8D191
:10273000F0E700220E49F5E78A42EBD020210B4A50
:1027400091620121A2F5805251600649084A886AC7
:10275000800603D49342DDD00133F8E79342DEE7ED
:1027600000900050008009503254FFFF00A0095033
:1027700040420F004FF0004238B5164B01465A66F2
:102780004AF6CD33144C154A656C236443780B200C
:102790005B0043F00103D363FFF72CFF63688A7883
:1027A00023F4F87343EA02136360CA784B7943EA6F
:1027B0000223A3600A798B7943EA02232361087814
:1027C000FFF782FFEB0744BF054B236405F036FF9C
:1027D000012038BD0090005000800950004000509A
:1027E0003254FFFF4FF00042124B70B55D6E03F59F
:1027F00080535A664AF6CD3304460F4980204E6C0A
:102800000B64FFF7F7FE0B6A23F00F030F2C94BF46
:10281000234343F00F030B62F30744BF074B0B64E2
:10282000002DA2BF4FF00042054B5A6605F006FF8F
:1028300070BD00BF00800050008009503254FFFF7F
:1028400000A0005010B505F0FEFE042300F58051F5
:1028500000F500520B6113610B6113610B61136191
:102860000B611361202341F2020103610023C36065
:10287000836041614FF4A021836183654162054912
:10288000C36103628362C36243630365D16403630C
:1028900010BD00BFFF3F0D03F8B5054614460846BE
:1028A00081B9394B9D4238D0384B9D4237D003F522
:1028B00080439D4235D003F580439D4208BF66208A
:1028C000FFF73AF9AB68DE0733D5B0FBF4F46E6876
:1028D000013C16F001062AD02821284605F0AFFE5B
:1028E000AB6C99071FD1AB6CDA071ED4AB6C13F03D
:1028F000020F14BF06270027284605F0A4FE2B6907
:1029000023F07F4343EA04632B61002E3BD039461A
:102910002846BDE8F84005F0CDBE5620D0E7572048
:10292000CEE76520CCE70527E6E70927E4E7374649
:10293000E5E76B68AB6DDB07AB6848BF640003F08D
:10294000E003402B1BD014D8002B0CBF102308230E
:1029500063434101B1FBF3F20D4B203A03EAC2029B
:102960002846012105F06BFE2A63BDE8F84005F01A
:1029700066BE602B05D0802B05D10123E8E7062336
:10298000E6E70423E4E7F8BD0000015B00C008505F
:10299000F8FF7F002DE9F8439846436804460E4649
:1029A00017461BB140F6FF7105F049FE2046FFF7C0
:1029B00049FFF189737B62690B43318A22F44C52DF
:1029C0000B4322F00F0213436361A268317E337B15
:1029D00022F0804222F0E2020B4313437269D6F8E0
:1029E00008901343A360B9F1000F03D1A36843F02B
:1029F0000043A360F069002871D0857A037A6D04E2
:102A0000A26845EA83558B4B13401D43838803F42A
:102A1000C0431D43437845EA8305437B45EAC3052C
:102A2000837B45EA0315837845EA8325A560E5683D
:102A3000D0E904321343804A2A401343827943EA9F
:102A40008223C27943EA4223E360037803F0FD0264
:102A5000012A08BFE268A3F1020304BF42F00402A6
:102A6000E260012B754B00F296809C4200F08D8055
:102A7000734B9C4200F08B8003F580439C4200F036
:102A8000888003F580439C4214BF4FF0FF3303233B
:102A900041F294425B0103F1A04303F57033022538
:102AA0009D50437A04F5805293621BB1E36843F46E
:102AB0000063E360C37A63B1E36843F40043E36017
:102AC0005E4B9C4240F08580037B5E4A03F00F031F
:102AD0005367636AC27B23F003031343636247B106
:102AE00097F8203004F58050002B00F090800123EF
:102AF0000362B8F1000F32D004F5805011B14FF4E9
:102B0000004383654D4BB8F822109C4298F8213061
:102B100000F08A804A4A944200F0888002F58042A0
:102B2000944200F0858002F5804294420DD1032248
:102B3000112B34BF01270227434DB1F5006FAF546D
:102B400094BF01270227414DAF54A26D0B4322F4DD
:102B5000F95222F01E021343A36501238365052168
:102B6000204605F08AFDB9F1000F03D04A4671688E
:102B7000FFF792FE2046317805F09CFDA36CDB4305
:102B800013F4405FFAD1BDE8F883002380E7012306
:102B90007EE702237CE79C4215D0294B9C4214D04F
:102BA00003F580439C4212D003F580439C4214BF3E
:102BB0004FF0FF3303235B0103F1A04342F2944241
:102BC00003F570336BE70023F5E70123F3E70223F6
:102BD000F1E71B4B9C4206D1037B1A4A03F00F031B
:102BE000C2F8803075E71A4B9C4206D1037B154A28
:102BF00003F00F03C2F88C306BE7164B9C4201BF09
:102C0000037B104A03F00F03C2F8983061E7E269D2
:102C100097F8223097F8215022F009022B431343F2
:102C200043F00103C36164E7002281E701227FE7EB
:102C300002227DE7E39BBDFFFFF9F0870000015B07
:102C400000C0085000900350472400204324002077
:102C50000000095000400950436870B504460E4614
:102C60000D691BB140F6FF7105F0E9FC2046FFF746
:102C7000E9FD2269737BB17B22F087020B4313438A
:102C800043F0800323610DB323692A7F23F0F80307
:102C900043EAC2132A7813432A7943EA42136A7A31
:102CA00043EA0213EA7B43EA82132361E268D5E92F
:102CB000053122F0F04222F470220B4313432A7BA9
:102CC00043EA82236A7B43EAC233E360A368F27B70
:102CD00023F00303134343F00103A36025B36B8880
:102CE000A26803F4C0431343A360A3686A7943EA6C
:102CF0008223A360AB79E979626A1B01090203F0C0
:102D0000700301F4E06122F4772222F4EE620B43B7
:102D100013432A7A120302F4E04213436A7F120437
:102D200002F47022134363626369327B23F00F0362
:102D300013436361ADB16B89A3616B7B3BB1314BD5
:102D40009C4224D1AB7B304A03F00F035367EB7BEB
:102D50003BB12C4B9C4238D12B7C2B4A03F00F0308
:102D60001367D6E901122046FFF796FD052120469C
:102D700005F083FC282105F062FC3378A36305F09D
:102D80005EFCA36CDB4313F4405FFAD170BD1F4BB4
:102D90009C4206D1AB7B1C4A03F00F03C2F8803083
:102DA000D5E71B4B9C4206D1AB7B174A03F00F03C0
:102DB000C2F88C30CBE7174B9C4201BFAB7B124A69
:102DC00003F00F03C2F89830C1E7104B9C4205D1C5
:102DD0002B7C0D4A03F00F03D367C2E70C4B9C42D8
:102DE00006D12B7C084A03F00F03C2F88830B8E7FD
:102DF000084B9C4201BF2B7C034A03F00F03C2F82F
:102E00009430AEE70000015B0090035000C0085012
:102E10000000095000400950072A2DE9F0411546ED
:102E200098464FF0030401F003072DD89600B440F4
:102E300000FA06F221461C4805F056FC21461B48C4
:102E400007FA06F205F050FC194B1A499DF81800D4
:102E5000B8F1000F18BF1946012303FA05F50D60FC
:102E6000154B1649002818BF0B461D60144B9DF8E2
:102E70001C00C3F82054103103F22443002818BF6B
:102E80000B461D60BDE8F081A2F10806B600B44013
:102E900000FA06F221460B4805F026FC21460A48B6
:102EA00007FA06F2CEE700BF00C4035008C403507F
:102EB00010D4035010E4035014E4035014D403500E
:102EC00000E0035004C403500CC403502DE9F0414A
:102ED00005460F461E4690464AB101233022194C42
:102EE0008B4002FB004436B304F5825423600F216B
:102EF000072F05EB450388BFA7F108044FEA03132A
:102F0000114895BFBC00A40004330C3308FA04F246
:102F1000A140184405F0E8FBB8F1000F09D10123E6
:102F20003021084ABB4001FB05223EB102F5825226
:102F30001360BDE8F08104F50154D7E702F50152B2
:102F4000F6E700BF00C0035030C0035010B5232087
:102F500000F03AFC0024FF22064B21465C6520204D
:102F60009A625C60FEF7D2FD2146BDE81040212048
:102F7000FEF7CCBD00000450044A054B002908BFF1
:102F80001346012282401A60704700BF401004506F
:102F90004020045010B5012104462020FEF7B6FD64
:102FA00001212120FEF7B2FD0122114B23205A609E
:102FB000227812069A606178A27842EA01429A6108
:102FC000FF229A6200229A631A644FF000425A6507
:102FD0004FF0FF3203F500531A6500F023FC232065
:102FE000E17805F04BFCBDE81040232000F0FEBB6B
:102FF00000000450F8B50125C3B2D1F800E091F803
:103000000AC00F7B0C469D40CB7A1D491D4E0D65B5
:10301000810001F1A04101F58821C1F804E04FF0E1
:10302000300E0EFB00601B05617B43EA0C4343EA54
:10303000475322F003020166C365026708F0ECFA09
:10304000114B5D65237A13B1336C2B433364637A80
:1030500013B1B36B2B43B3632279A37943EA0243E1
:10306000074A93616179E37943EA014306498B6139
:10307000044B55639D64BDE8F84008F0C8BA00BF32
:1030800000200450000004500010045010B501242A
:10309000C0B2844008F0C0FA044B5A6D22EA040220
:1030A0005A659C62BDE8104008F0B1BA00000450B7
:1030B00010B50124C0B2844008F0AEFA074BDA6ABA
:1030C000224208D15B6B9C430CBF0124002408F012
:1030D0009EFA204610BD0024F9E700BF000004500E
:1030E00070B5054608F098FA3022084B5E6B02FB7B
:1030F00005335C6E08F08BFA0123EDB2AB4033422E
:103100000ABFC4F30A100020013070BD0000045053
:103110000D4B984208D1A3F5D023C3F85812C36DC4
:1031200043F08003C3657047084B984204D1A3F570
:10313000D823C3F87412F2E7054B984204BFA3F5F5
:10314000E023C3F89012EAE700000A5000400A505A
:1031500000800A50012200F580535A6040F6AA63AD
:1031600041F20502436100230D498360C365C260DB
:1031700000F500520361C361C3649164094983652A
:10318000884203D103650023436506E0064988426F
:10319000F8D001F580418842F4D001235360704794
:1031A000FFFF010000000A5000400A50012243784E
:1031B00001789A4030235943014B5A50704700BF61
:1031C00040E00350034BD3F82424D3F820041040EC
:1031D000704700BF00C00350064BDA6E02F03002A9
:1031E000202A06D0DA6E22F0300208B142F0100236
:1031F000DA667047004000502DE9F8431F4B054642
:10320000D3F810334B1E0E2B0E461746047890F859
:10321000018026D951B34FF0000928461FB306F0AC
:1032200035FD0F21B8F1070F04EB440488BFA8F166
:1032300008084FEA0414124895BF4FEA88084FEA7D
:10324000880804340C3409FA08F201FA08F1204421
:1032500005F0ABFA86B9284657B1BDE8F84306F049
:1032600015BD8946D9E7FFF7A1FFDAE78946D8E718
:10327000BDE8F843FFF79ABFBDE8F88300C00350EC
:1032800030C003502DE9F0412B4B1746D3F81023E3
:103290004A1C06460C46407804D1D3F8241405F0A5
:1032A00093FA0446002C2FDB072C4FF003053278ED
:1032B0002DDC4FEA840805FA08F529461F4802FA72
:1032C00008F205F072FA294672781D4802F00302EE
:1032D00002FA08F205F069FA012317F0050F194AFE
:1032E00018BF194903FA04F30CBFC2F81034C1F82F
:1032F000103417F0060F18BF134AC2F81434012314
:10330000104AA340C2F820342046BDE8F081A4F161
:1033100008084FEA880805FA08F529460B4802FA1A
:1033200008F205F042FA7278294602F003020848D2
:1033300002FA08F2CEE700BF00C0035000C40350F9
:1033400008C4035000E0035000D0035004C40350ED
:103350000CC4035038B505460C4C0140D4F8303449
:1033600023EA0003C4F83034D4F830341943C4F8E5
:103370003014D4F82C340343C4F82C34012004F561
:103380000054FFF729FFC4F8205438BD00C0035093
:10339000124B70B5D3F81033064605F02FFA0446E9
:1033A000481C154616D0621C0FD08C420FD1032149
:1033B000304685F00102FFF71FFF012004F11003E2
:1033C00005FA03F19840FFF7C5FF204670BD4FF0A6
:1033D000FF34FAE7631CEAD1F7E700BF00C00350EF
:1033E000054B9A689107FCD45A689207F9D4DA69B8
:1033F000002AF6D1704700BF00C00A5008B506F099
:1034000051FC0222014B1A6108BD00BF00C00A50E6
:1034100008B5FFF7E5FF0122024B03F580514A6032
:103420001A6108BD00C00A5008B5044B596801294B
:1034300003D1FFF7E3FF024B596008BD00C00A50FB
:1034400000E00A5010B5064CFFF7CAFF6368012B75
:1034500003D1FFF7E9FFFFF7C3FF0378E36010BD77
:1034600000C00A50B8B94A680B7812B1127843EA22
:10347000C2034A7843EA42038A6812B1127843EAE7
:1034800082138A7843EA8203CA6812B1127843EA47
:103490004223014A9364704700C00A5088B1006813
:1034A000C0F38212022A0CD8920041B1064B134499
:1034B000012200F03F0082401A6000207047034B59
:1034C000F5E70E20704700BF6490005064A00050E4
:1034D00070B589488AB005F0C5F90646002840F065
:1034E000F7806C46854D0FCD0FC42B682360FF23FA
:1034F0008DF80130824BD3F84C21510300F1EF805D
:10350000D3F850318DF801609DF801306C46FF2BE7
:1035100008BF2A2368467B4D8DF80130FEF752FE26
:103520003220FEF78DFE0FCD0FC40FCD0FC495E8EE
:10353000030084E80300724BD3F84C21120340F1DE
:10354000CA80A3F5FE431C88B4F5807F28BF65249C
:103550008DF81940FEF730FE044484F308046A48ED
:103560008DF81840FDF716F86846FEF761FD322029
:10357000FEF76CFE6548FEF765FF6548654CFEF793
:10358000D1FF01213620FEF7C1FA0020FEF764FECC
:10359000FEF70EFF236F002023F0070343F0030321
:1035A0002367FEF72FFF236F5B4923F474432367E0
:1035B000D1F8FC2012F080721EBFD1F8FC3023F04D
:1035C0008073C1F8FC30D4F8803023F0030343F05B
:1035D0000103C4F88030D4F88030C4F8803032B1B0
:1035E0004D4AD2F8FC3043F08073C2F8FC30494CAD
:1035F000D4F8203123F0070343F00203C4F820314C
:10360000D4F8283123F0070343F00203C4F828312B
:10361000D4F8803123F0030343F00103C4F8803170
:10362000D4F8403123F0030343F00203C4F84031DF
:10363000D4F8603123F0030343F00203C4F860318F
:10364000D4F8403223F0030343F00203C4F84032BD
:10365000D4F8003223F0070343F00203C4F8003229
:10366000D4F8083223F0070343F00203C4F8083209
:10367000D4F8503223F0030343F00203C4F850326D
:10368000D4F8703223F0030343F00103C4F870321E
:10369000D4F8203223F0070343F00103C4F82032AA
:1036A000FEF7AEFC4FF0E022136943F00403136110
:1036B000D4F8603223F0070343F00103C4F860320A
:1036C000D4F8943223F0070343F00103C4F8943292
:1036D00030460AB070BDD3F85041E4B238E74FF03D
:1036E0007E6393F89C2093F99C30002BFFF60CAF7F
:1036F0008DF8012008E700BFC0C3000870C30008B0
:103700000080E00F84C30008C017530200B4C40453
:10371000C0EA21010080005000ED00E007B5094B30
:1037200018689A889B7900906846ADF804208DF857
:103730000630FFF71FF80C20FFF754F8002003B005
:103740005DF804FBACC3000813B50024064A6846C4
:10375000536F43F00103536700948DF80440FEF764
:1037600051FF204602B010BD004000500028ACBF01
:1037700000F16040064B4FEA0111C9B2ABBF00F542
:10378000614000F00F0080F800131954704700BF2B
:1037900014ED00E008B507F03FFF0A4B1A786AB94C
:1037A00001221A7007F033FF6FF004021046052162
:1037B0000132FFF7DBFF5D2AF8D108BDBDE8084004
:1037C00007F025BF4B24002000280CDB012206490E
:1037D000430900F01F008240203341F82320BFF34B
:1037E0004F8FBFF36F8F704700E100E0002807DBC9
:1037F00001234109034A00F01F00834042F82130B1
:10380000704700BF00E100E0054B421153F8223041
:1038100000F01F0023FA00F0C04300F001007047E1
:1038200000E100E0002808DB01224309034900F021
:103830001F008240603341F82320704700E100E020
:1038400073B507F0E0FE0D4D0D4B2E781C6807F0A8
:10385000D5FE07F0AAFF38B1FF2E05D00020297849
:1038600001AA04F070FD019C2CB907F0CCFE054BB9
:103870001C6807F0C3FE204602B070BDD95400207A
:10388000001300200413002010B5044607F0BBFE0F
:10389000024B1C6007F0B2FE002010BD0413002094
:1038A0002DE9F04F1D4692F80F80136893B08146C2
:1038B0008A4614461F680AAEB8F1000F00F0E68091
:1038C000DFF8F4C1BCE80F000FC69CE80F0086E8E3
:1038D0000F0004AB18221846002105F05DFEA26817
:1038E00003460C92227B012A00F0D380022A0CBFEF
:1038F0004FF440720022ADF83620627B1193032A08
:103900008CBF4FF480526649A37B98BF31F81220D8
:10391000C8F10208ADF838205A1E022A88BF0023D9
:103920008DF810305FFA88F3CDE902335D4B4FF02C
:10393000010B0193002352460093294648465A4BF7
:103940008DF816B000F086F90646002840F09A80FF
:1039500023695648C5F82031237E85F82731E37D59
:1039600085F82631A37D85F82531637D85F82431DE
:10397000A37E85F82931637E85F82831237F85F879
:103980002B31E37E85F82A312368C5F81C3104F019
:1039900069FF5B460422A17D607DFFF797FA5B46D5
:1039A000217E0222E07DFFF791FA85F82C612069E3
:1039B00004F058FFE37B38460AA9002B6CD004F0D2
:1039C0008DFE95F82C3143F0040385F82C31142139
:1039D000227D374B03EB4210C0F8941494F816C0C4
:1039E000617D253241EA0C41C0F8AC14207EE17DB6
:1039F00003EB421341EA00415960A37B03F0FD034E
:103A0000012B0BD195F82C31022243F0010385F8EC
:103A10002C31A17E0023607EFFF758FAA37B023B86
:103A2000012B0BD895F82C31042243F0020385F8C2
:103A30002C31217F0023E07EFFF748FA95F82C31E6
:103A4000DB0717D5A17E627E237D42EA014241F267
:103A50009C415B0103F1A04303F570335A5041F2DE
:103A6000944202219950217FE27E03F5A55342EA58
:103A700001421A600F4A07F5005305213846DA64FF
:103A800004F018FE304613B0BDE8F08FDFF82CC00C
:103A900018E74FF400722EE704F024FE97E700BF0A
:103AA00038C40008E988000865890008C4C3000814
:103AB00000C00350FF3F0D0340C4000860C400086D
:103AC0003021037A02464B4303F1A04303F58023E0
:103AD000D86E07491B6F884208D113F0020006D048
:103AE0005069536B1B1A5842584170470020704769
:103AF0004C2400207FB504460D4690F84F6006F038
:103B0000DFFA022817D1D5B1AEB9114B6846CDE91D
:103B1000003604F1A80302932023039306F0B0FBC0
:103B2000C4F8A400204604F04BFF20B90121D4F8CA
:103B3000A40006F0C3FB84F84F5004B070BD002E03
:103B4000F9D0D4F8A40006F053FCC4F8A450F2E76E
:103B500080C4000810222DE9F04188B004460021FD
:103B60000DEB020005F018FD4FF44473ADF8123070
:103B7000344B207ACDE90533FDF750F92046FFF7A5
:103B80009FFF0546207A25B1FDF768F908B0BDE82A
:103B9000F0810DF10B0106F035F89DF80B70002F48
:103BA00048D1204604F0F0FE03A90646207A06F02C
:103BB0004BF8039B3946013B9DB204F10C031022E4
:103BC00018461F46D4F8048005F0E6FCE2681E4B58
:103BD000C5F30A05134030222D0145F040751D4301
:103BE000237AC4E90358534303F1A043666103F504
:103BF00080231A6F217E520862F341012176196FEA
:103C0000227E27F0030761F3000222761B6FA26970
:103C10009B0863F39F0247F00207A261079723689E
:103C20000A4904AA0B600094094B207AFDF7D0F8EA
:103C3000207AA9E79DF81C3065F341038DF81C300C
:103C4000EDE700BF4C2400200F80FFFC081300208C
:103C5000618A00082DE9F0410C46164605468EB0F3
:103C60004FF48E72002120461F4605F095FC96E821
:103C70000300F3683269E362C4E90C23327D84E80F
:103C8000030084F84420B27DA364012384F84C30FF
:103C900084F84D30149B84F84520E363159BA7639B
:103CA0002364337A84F84E30394B2C606B60394B87
:103CB000AB60394B2B61394B6B61394BEB60FDF7D6
:103CC00053F838B1374B984204D0102738460EB01D
:103CD000BDE8F081002104F10800FCF7CDFF0746A4
:103CE0000028F2D1304B4FF00108AB612F4BEB6154
:103CF0002F4B84F84F80CDE9063004F1540308932C
:103D0000502306A8099306F08FFB2A4B2065CDE9C6
:103D1000063706A804F1CC03089306F085FB264B72
:103D2000C4F8C800CDE90A3704F1A8030C93202396
:103D30000AA80D9306F0A4FAC4F8A400CDE903770D
:103D40000297236BCDE900836368E26A2168207AD9
:103D500004F093FB07460028B7D13022237A4FF4B2
:103D60008011534342F2640203F1A04303F5802320
:103D7000995096F90800FFF755FD96F90800FFF7EE
:103D800035FD2846FFF780FD2046FFF7E3FE9DE75F
:103D9000B18C0008838A0008778900087D890008B3
:103DA000DD890008038000F0F53A000883890008E7
:103DB00097C40008A1C4000880C4000873B500249B
:103DC000684600F0BBF90C4B00981C600B4B0C4D87
:103DD0001C600C4E0C4B306018602C6005F01CF819
:103DE0002046019B3268013BDB0853802B6801337E
:103DF0002B6002B070BD00BF1C1300201813002000
:103E00002013002028130020241300202DE9F04F58
:103E10000E460027984689B0054606A81446059721
:103E200000F08CF9731C14BFB3464FF0080BB8F1C7
:103E3000000F00F0BC80C8F80070002D00F0B980C1
:103E4000079BAB4240F2B58007F0E6FB073505ABB8
:103E500025F007053146009381463B462246284619
:103E600000F076F9059E074606B130B9484607F0DE
:103E7000CEFB192009B0BDE8F08FDFF84CA17388A4
:103E8000DAF80010DA00C0EBC3030139272BCAF8B7
:103E9000001074D9002C50D1854205F1080347D099
:103EA00059463046029304F06FFF0446029B05908A
:103EB000059A02EB030B584604F0AEFF059905F195
:103EC0000F034A88C3F3CF03D21AABF80220CA8883
:103ED000ABF8043072B3D31A9BB201EBC202ABF859
:103EE000063093808B88ED08A380BBF80430002255
:103EF000314658466580E38000F09CF9237843F012
:103F000001032370DAF800300133CAF800302C4A7C
:103F10004846136808343B4413602A4A11688B42B0
:103F200088BF136007F073FB0020C8F80040A1E7CA
:103F30003446BDE7ABF80620D4E7F41820460293D8
:103F4000039204F069FF029BF91DC908059861807E
:103F5000D91DC908A180C18879B1C900039ACD1DB6
:103F6000AA1A3A44C2F3CF020144E2808A80013B9C
:103F7000DB084380A388C380C0E7E180F7E7012C1A
:103F800019D106F10803B3FBFBF20BFB1233A3B10B
:103F90005946304604F0F8FE04462378012243F0E7
:103FA000010331462046237000F044F9AFE7222098
:103FB00060E721205EE78542EAD13446EDE700BFA5
:103FC0001C13002018130020201300202DE9F347B4
:103FD0000446684600F0B2F8002C00F0A48007F018
:103FE0001BFB14F8087CFB0702D534F8065C2DB9DE
:103FF00007F00DFB012002B0BDE8F0874B4ADFF867
:1040000038E11368DEF80080A3EBC503136034F8D1
:10401000042C691C08F10103A4F1080689B2CEF84A
:104020000030002A77D0A6EBC20393F800A0B3F8C3
:1040300006901AF0010FB3F802C007F002075ED134
:10404000002F5DD1A9EB0C02012A64D8AA1C94446C
:104050001FFA8CF1CEF8008034F802CCBCF1000FCE
:104060005DD0DDE9007206EBCC081744B84556D2A6
:1040700016F83C60424616F0010615D1ACEB05057A
:10408000012D11D8B8F80250A8F802600135294472
:10409000B8F8065089B2002D3FD008EBC502DEF813
:1040A0000050013DCEF8005014F8085C013925F0AD
:1040B000010504F8085C002524F8065C598019788D
:1040C00065F30001197062B3C3F107011144C1F334
:1040D000CF01D980918016490A681AB19A4201D855
:1040E000528802B90B6013490A681AB19A4201D387
:1040F000528802B90B6007F08AFA00207BE757B1BB
:104100000A4491B214F8082C22F0020204F8082C98
:1041100000229A80A0E733469EE72A46BFE70022A6
:10412000C2E7DA80D7E7222065E700BF1C13002032
:104130002813002024130020201300200249034AE2
:104140000160521A42607047F054002000000820BD
:10415000F0B506460020059F4C1C08BF08213860BA
:10416000BAB91F480568002D38D0B5F802E0DB0069
:1041700003EBCE0EC1F1000C2878C0070BD52ABB8B
:10418000E888B0B105EBC005B5F802E003EBCE0E50
:10419000F2E71448E6E7B645F1D35AB905F1080449
:1041A000B4FBF1F001FB1044A0190CB17045E7D845
:1041B0003D60F0BD08290FD06C88013405EBC404C4
:1041C000A01B00EA0C00201A8645F1D2A88800281E
:1041D000EFD0A5EBC005D7E73046E9E72846E8E78A
:1041E0002813002024130020104B13B51B6804462D
:1041F0000846C3B121B96846FFF7A0FF4CB9009843
:104200000378DB0710D53CB9C38863B100EBC3006A
:10421000F6E7074B1868F3E7012C04D1838813B144
:10422000A0EBC300ECE7002002B010BD201300207B
:1042300024130020F8B5134F04460D463B68124E78
:104240008AB1994200D021B921460020FFF7CCFF66
:1042500038603368AB4200D025B921460120FFF712
:10426000C3FF3060F8BD994205D13C603368AB4272
:1042700004D13460F6E79842F7D3F7E7A342F8D3C6
:10428000F0E700BF281300202413002070B507F0CA
:10429000C3F9144E05463478FCB9134B1C60134B1C
:1042A0001C60134B1C6000F02BF8012007F02DFA66
:1042B00005F08AFE0F4B0246186020B9284607F029
:1042C000A6F9232070BD234640F2E7310A4803F0E7
:1042D00075F90A4B186001233370284607F097F9E7
:1042E0000020EFE74F24002034130020301300207B
:1042F0003C1300203813002018FCFFFF2C13002073
:1043000010B50123002486B01648CDE903448DF88A
:104310000440ADF808308DF80A40059404F0A2FA84
:10432000BFF34F8F01A8FFF78DF8204602A98DF843
:104330000840FFF797F820460F2105F0C3FC0F2136
:10434000204605F0C5FCFFF763F805F0ABFC064B13
:1043500053209C61FFF766FA5320FFF747FA06B037
:1043600010BD00BFC0C3000800C00A5010B504460D
:1043700005F0B6FB0C4BA0F57A729A4212D84FF4B6
:104380007A73B0FBF3F05C43084BB3FBF0F3B4FB80
:10439000F3F0022806D9BDE810400323B0FBF3F088
:1043A000FBF70EBF10BD00BFFFC99A3B40420F0094
:1043B000002307B50193054B1B6807F03AFB019BEF
:1043C000002BFCD003B05DF804FB00BF2C54002090
:1043D000002373B5019300F083FA012000F0F8F890
:1043E000134C144E206803F0E2FF00F017F9054665
:1043F00020B94FF47A7005F02BFFF3E70146402215
:10440000306801AB04F04DFA0028F2D1206803F0C7
:10441000D1FF606803F0CBFF2846019900F008F94E
:1044200010B1206803F0C3FF606803F0C3FFD9E751
:10443000485400204454002008B5044B0146186835
:1044400004F047FAB0FA80F0400908BD4454002057
:104450000021024A024805F081BE00BFDCC9000805
:10446000D1430008064B1B681A7A022A01D81AB9F0
:104470007047032A00D070471B68024A13607047D8
:1044800030540020E81E002030B5184D8FB006AC27
:104490000FCD0FC495E80F0084E80F000E22002115
:1044A0000DF10A0005F078F84FF47022104B6946C0
:1044B000CDE9002314238DF8083015238DF8093039
:1044C0000C4B06AA03934FF40063049301230A489C
:1044D0008DF81530094BFFF7E3F904460021084831
:1044E00003F004FF20460FB030BD00BF00CA000833
:1044F0003C00015BF02400201C200020EC1E00206A
:104500007C312500014804F035BA00BF1C20002092
:1045100008B5044803F048FFBDE80840024803F02E
:1045200043BF00BF38CA000820CA0008024B034935
:104530001868FCF783BD00BF705400205054002061
:104540002DE9F0418846144630B971B341F20403B5
:104550009A4203D9BDE8F0810024A046AA22194D51
:1045600008262A70184A194F127868606A7004F198
:104570000A026A804FF6FF723A8015F8012B3988DB
:10458000104604F0A5FC38801046FFF755FF013EA9
:10459000F3D1B44239880AD8C8B2FFF74DFF388842
:1045A000000AFFF749FF0120D4E70C46D6E718F8C8
:1045B00006200136104604F08BFC38801046FFF7C9
:1045C0003BFFE6E7F12C0020FF3C0020D454002004
:1045D00038B500240D4B05461C800D4B1C7005F0B2
:1045E000B7FD4FF4FA634FF47A724343B3FBF2F32F
:1045F000084A136045B1084B22461C7021462046EC
:10460000BDE83840FFF79CBF012038BD3A240020A8
:10461000F02C0020C0200020FF3C0020024B03486B
:104620001B881844704700BF3A240020F12C00205A
:104630002DE9F74F06460024DFF8D081DFF8D0914E
:104640004718BE4203D1204603B0BDE8F08F07F003
:104650008CF8D8F80030C01AD9F80030984202D946
:104660000020FFF7B5FF07F080F8DFF8A8A1C8F831
:1046700000009AF8003016F8010B032BE1D8DFE8B0
:1046800003F00211324BAA28DBD15A4B5A4D19883C
:10469000012268544FF2505058498AF8002008808F
:1046A0001A80CEE7DFF84CB1544BBBF80020524DD6
:1046B0001988A85404F00CFC013292B24F4B0B2A1B
:1046C0001880ABF80020BCD941F20E026B889342EF
:1046D00003D90020FFF77CFFB3E70E2B1AD9022382
:1046E0008AF80030ADE7DFF80CB1444BBBF800208E
:1046F000414D1988A85404F0EBFB01323F4B92B2B4
:104700001880ABF800206B88023B9A4299D30022B4
:104710003B4B1A800323E3E7394BDFF8D8B01A8804
:10472000000240EA12201880BBF80030324D0133FD
:104730009BB2ABF800306A889A4282D82F4B1B8814
:104740008342C6D12F4B6A781A7000238AF8003052
:104750000193ADF80230AB88102B0CD8102B0CD87D
:10476000DFE803F010151B212533390B0B0B0B0B66
:104770000B0B0B0B3F00FF2B38D000226FF00F000C
:1047800011461BE004F0DAFBBDF8022015E00DF144
:10479000020101A800F0BEF8F6E70DF1020101A840
:1047A00000F0D2F8F0E7E88804F0CDFBECE701AACE
:1047B000A968E88800F0F6F8EA880199FFF7C0FEDA
:1047C00000230446ABF800303BE70F4AA968E888AD
:1047D00004F0C1FBD8E70C4AA968E88800F0F6F8B5
:1047E000D2E7A968E88804F0D5FBCDE704F0D5FB53
:1047F000CAE700BF3A240020F12C0020D454002046
:1048000038240020FF3C0020FD2C0020C420002084
:10481000C0200020F02C00202DE9F04F144600238A
:10482000E20748BF4AF64F3285B0ADF80E3048BFB8
:104830002A4BC1F30B0580460E4648BF1A8015B1BE
:10484000A30719D500254AF6493BDFF890A0B542E9
:104850000AD314F0020010D04AF645331F49D22083
:104860000B8000F097FA08E0BAF800204AF64F33C0
:104870005A4505D09A4229D0012005B0BDE8F08FF5
:104880004927D42008EB0501AAF8003000F082FA8D
:104890000028F2D106F069FF814647F42B47D1206A
:1048A0000DF10E0100F076FA0028E6D1BDF80E30C9
:1048B000BB4210D006F059FFA0EB0903019305F0AD
:1048C00047FC019B8342EAD90720D6E74AF64933E1
:1048D0004F27D520D6E705F58055B8E73C240020C2
:1048E0001FB50B4A01AB07CA83E80700184600F062
:1048F00055F9044648B901F0E9F8044628B904F02E
:10490000F6FA044608B904F04EFB204604B010BD88
:1049100050CA0008002208B50A4B1A705A700E22BD
:104920009A701022DA70036004230B8000F0C6FA3C
:1049300038B104F0DCFA00F0C1FA003818BF0120E9
:10494000404208BD003D0020F0B587B06C46134DD5
:1049500007460E460FCD0FC495E803000222104B08
:1049600084E803001A7000225A709A70DA703B6073
:10497000042333800DEB03042246042154F8040C75
:1049800004F098FB18B14FF0FF3007B0F0BD4FF4C2
:10499000FA70083405F05CFCEEE700BF5CCA000862
:1049A000003D002038B5034614469A07084602D059
:1049B0004FF0FF3038BD044D19462A4604F0A4FAE2
:1049C0000028F5D12560F5E7003D0020CBB2013B82
:1049D000F7B505460E461446042B7FD8DFE803F0F2
:1049E000037E626466000023D12001A9ADF8043083
:1049F00000F0D0F9002851D1BDF80430002B4DD083
:104A000003F47F42B2F52B4F48D1DBB2112B68D1B2
:104A1000F3053FD404F0EBFC49F640470646304628
:104A200004F0E7FCB84239D801A801F01DFB552875
:104A3000F5D05828F3D088BBADF8020002212A48EF
:104A40000DF1020204F060FA40BB0226264831460E
:104A50000DEB0602ADF8026004F02CFBF0B9ADF8E6
:104A60000200314620480DEB060204F04DFAA8B9C9
:104A7000BDF80230B34211D1422001F01DFB68B9EC
:104A8000012229462046FFF7C7FE003818BF012043
:104A9000404205E001F0C2FB0028BBD04FF0FF30E0
:104AA00003B0F0BD0022ECE70222EAE70023D120A8
:104AB00001A9ADF8043000F06DF960B94AF6493249
:104AC000BDF80430934206D04AF64F32934202D0EA
:104AD000DBB2532BE4D06FF00400E1E76FF001008C
:104AE000DEE76FF00600DBE74C620500024B1B6857
:104AF00003B11847704700BFC8200020014B186859
:104B000005F0E2BDD8200020F7B5164C0E1E14BFEC
:104B100031462146171E14BF3A4622460F2B1D462A
:104B2000D0F804C018DD089C0094FCF76FFC0E4818
:104B300015E0DCF818305806FBD50B78CCF83C3083
:104B4000DCF818309B06FBD5DCF82430137006B176
:104B5000013107B10132013D002DEADC002003B034
:104B6000F0BD00BF0E4D0020032000F04FF4807216
:104B7000014B1A67704700BF00D003504FF480729A
:104B8000014B1A67704700BF00E00350024B586F9B
:104B9000C0F38010704700BF00C0035037B50368F2
:104BA000354C364D2360436801216360037A3A2017
:104BB0002372FCF7ABFF286810B905F035FC2860BC
:104BC0002F4D2A6822B91146012005F0EFFC28601C
:104BD0002C4B2D491868FCF73DFC002301220821CD
:104BE0000320FEF773F90023042207210320FEF7B8
:104BF0006DF90023052209210320FEF767F901233F
:104C000004220A210320FEF761F90321272003F083
:104C100035FE03201D49FCF77BF9032200231146D2
:104C20001046FEF753F9237A712B18BF00224FF07C
:104C3000010318BF00924FF0030208BF00930193D5
:104C4000114608BF00231046FEF7E6F800230822AD
:104C500002210320FEF73AF9012307221846082112
:104C6000FEF734F90023072206210120FEF72EF972
:104C7000002003B030BD00BFC8200020D420002099
:104C8000D82000207054002020BCBE00ED4A00084F
:104C9000F7B5164604460D460F4F4FF0FF31386802
:104CA00005F004FC0D4B0E4800932A46334621467E
:104CB0000068FFF729FF0B4B984207D10A4B4FF4CE
:104CC0007A71186805F0CAFC00B100BE386805F0BA
:104CD0001DFC002003B0F0BDD4200020FD4A0008D8
:104CE00070540020032000F0D82000200422024B42
:104CF000C3F8D020704700BF00E003500422024BED
:104D0000C3F8D020704700BF00D003502DE9F04712
:104D1000DFF854904FF0FF310646D9F800001546F1
:104D20001F4605F0C3FB05F0FFF9804605F10C0AAC
:104D3000504602F00DFE044630B1D9F8000005F0EF
:104D4000E5FB5CB919200DE0012005F081FA05F0C2
:104D5000EBF9A0EB0800B842EAD3EEE7002065606B
:104D600020603460BDE8F0878C22002038B504460E
:104D700068B1074D4FF0FF31286805F097FB2046DA
:104D800002F0EEFD2868BDE8384005F0BFBB38BD35
:104D90008C2200200346002030B5D52B85B00C4670
:104DA000ADF804000290ADF80600039008D8D02BAF
:104DB00008D8422B4CD00DD8312B73D0342B47D090
:104DC00005B030BDD13B042B71D8DFE803F00812E9
:104DD000702E1800712BF3D14AF6713364E0022172
:104DE00034480DF1060204F084F9BDF80630238042
:104DF000E6E70A460221304804F05CF9E0E70025C6
:104E00004FF4806105F5A2206219084404F052F9BC
:104E10000028D5D105F58065B5F5805FF0D14AF65B
:104E20004933ADF8043001AAE4E700254FF480616E
:104E300005F5A4206219084404F03CF90028BFD10C
:104E400005F58065B5F5805FF0D14AF64F33E8E7A8
:104E500043F42B430221184802AA029304F02AF9D2
:104E60000028ADD14FF6FE74124D0390039B5A1CDF
:104E7000A34203920DDC022128460DF1060204F044
:104E800038F900289CD14AF63233BDF806209A4200
:104E9000ECD14FF6FE73039898424FF0FF30D8BF25
:104EA00000208DE74AF63133029302AAA2E70020E0
:104EB00086E700BF3C00054134000541002313B5DF
:104EC0000C4ACDE9002304F092FA04460422684615
:104ED0000DEB0201FFF7DCFE9DF80730582B07D0E1
:104EE000204604F086FA0928F0D9582002B010BDF7
:104EF0000020FBE7124A5C0030B585B0042104466F
:104F000000225C2002AB04F0B8F8014668BBBDF893
:104F10000820BDF80A30013A043B22F0030292B2A5
:104F2000ADF80A30012142F210732046ADF8082096
:104F3000FFF7ECFE38B14FF4C4731F4A1F492048F5
:104F400004F02EF800BE002120680DF1060204F0E6
:104F500033F8BDF80A500446BDF8081045B90346B9
:104F60002A465D2004F089F80146084605B030BDA8
:104F7000033121F003015D20039104F03EF8014666
:104F80000028F2D1022203A8FFF782FE0146002882
:104F9000EBD104F054F801460028E6D12A46FFF789
:104FA00077FE01460028E0D1039A2146521B92B2B7
:104FB000FFF76EFED8E700BF74CA0008C7C4000838
:104FC00027C5000807B50D4B01930222694601A8C9
:104FD000FFF75EFE9DF80130522B0BD0002BF4D171
:104FE000022269460DF10600FFF752FE9DF80130DE
:104FF000582BEAD103B05DF804FB00BF124A5C00F5
:105000000022F0B506469BB00846114603F0D4FFD7
:10501000858904460DB145F48035394B2A46197807
:10502000002003F097F9374F1122002101A804F066
:10503000B3FA5022002106A804F0AEFA3B68002B18
:105040005AD0042E52D8DFE806F0100310101300D7
:1050500004F1100101A804F0BFF801AA2946304666
:105060003F682388B847002047E004F11002F5E7C5
:1050700002238DF818306388A12B2AD108230DF163
:105080002C0C8DF8193004F1240E04F1140362463F
:1050900018685968083303C273459446F7D10DF177
:1050A0003C0C04F1340E624618685968083303C298
:1050B00073459446F7D10DF14C0C04F1440E624651
:1050C00018685968083303C273459446F7D106AA95
:1050D000C4E704238DF81930D4F816300893D4F8B7
:1050E0001A300A93D4F81E300993F0E76E23064A6B
:1050F0000649074803F054FF01201BB0F0BD00BF74
:10510000E1540020DC2000208CCA000859C50008AA
:10511000C5C500082DE9F84307460D469046002412
:105120004FF00609124E56F8041BC9B1CB7E434519
:1051300016D12A7C2846042A16BF10224031443159
:1051400004F01AFA60B93946204600F0FBFD60B958
:10515000204600F03DFF40B956F8043CA3F85890B3
:105160000134E4B2142CDED10020BDE8F88300BF86
:10517000F02000207FB54B880546742B0C462FD8B5
:10518000612B10D8B3B9A6890EB146F480363E4BD8
:1051900032461978002003F0DDF822463046E968EF
:1051A00000F0D6F806E0394A623B9BB222FA03F3DC
:1051B000D907E8D401F02CF863880646C32B56D0F3
:1051C000192B10D1062820D009285AD1E379012BB8
:1051D0001BD063B16688A6F1AE035E425E413AE041
:1051E000AB2BE7D1CFE7142B09D12B896BB140F65C
:1051F000283000F089FD288900F0F4F928E0AE2B72
:1052000003D8A02B18D8412BF1D00DF10F01A01C11
:1052100003F0F7FF70B99DF80F301D491D4800934A
:105220001D4A40F20F1303F0BBFE29689DF80F00E2
:10523000FFF7E6FE04B070BD42F20122A3F1A10126
:1052400089B2CA40D207E0D5AA2BD0D0A12BCED0AC
:10525000092EBFD000263146288900F09FFE304637
:1052600000F0DAFE0021304600F030F8CDE7238868
:10527000C3F30B032B2BC8D104F1100003F0E1FFA3
:10528000C3E70028B3D0E5E7E1540020010404009F
:10529000E6C5000853C60008A5CA000810B5094BAA
:1052A00004461B7883420BD906F0B6F90022064B60
:1052B00024B21B6803F83420BDE8104006F0A7B9FB
:1052C00010BD00BF16540020E820002070B5024633
:1052D00006251420074C54F8043B33B1DE7E964279
:1052E00004BF83F8585083F85910431E13F0FF0091
:1052F000F1D170BDF020002013289ABF024B53F863
:1053000020000020704700BFF0200020F0B50546C7
:10531000142400200D4E56F8043B7BB11F68AF42A9
:105320000CD193F858708F4208D0571C02D0DF6818
:10533000974203D193F8AD0128B91846631E13F0C4
:10534000FF04E8D1F0BD1846FCE700BFF0200020C4
:105350002DE9F0431446528880466C2A0D4685B0EC
:1053600014D10023A08D794A04F1100152F8044BA6
:1053700034B1E668022E03D1668C864200F0CC8000
:105380000133142BF2D14FF0FF30DBE0622A28D139
:1053900000273846FFF7B0FF064638B1218A036878
:1053A000994203D190F85830032B03D10137142FC1
:1053B000EFD1C4E04FF48373FFB2A0F85830A18955
:1053C000384600F0BFFC384600F002FE604B1B6818
:1053D000002B00F0B480D4F81220718C306898470C
:1053E000ADE01ABB4FF0FF36218B04F11007574B8D
:1053F000394453F8040B28B1B4F812C0006884454E
:1054000008BF56B20132142AF3D13046FFF774FFB9
:1054100028B9002DB7D0284602F0A2FAB3E7D0F899
:1054200074813B4630466269C04788E0742A49D19E
:10543000484B267C1B78B3423ED9474B1B6803EB95
:10544000C60713F83630002B36D0A389D7F804905E
:105450007B80B9F1000F0FD003AB02AA01A904F1C0
:10546000100003F076FF01A8434603AA02A9C8472B
:105470007878FFF713FF62E0182002F069FA03461C
:10548000786038B940F2A333344A3549354803F0DF
:1054900087FD54E004F1100228341F46106851685B
:1054A000083203C7A2423B46F7D101212E4BB1403F
:1054B000186804F003FF42E040F2AA33274A284963
:1054C0002A48E4E7AB2A3AD10023204A52F8041BC9
:1054D000B9B1207C0968884213D15AB21046FFF74F
:1054E0000BFF002895D090F888315B0744BF00235C
:1054F00080F85E31D0F878310BB31046617C984764
:105500001DE00133DBB2142BE0D14FF0FF32E5E7B1
:10551000284602F025FA14E04FF0FF33D4F88461F6
:10552000C4F884313046FFF7E7FE03F0E6FED4F816
:105530007C3123B13046227904F13C019847002D9B
:10554000E6D1002005B0BDE8F08300BFF0200020C8
:10555000EC20002016540020E8200020C9CA0008D2
:1055600078C6000827C50008E0200020DCC6000837
:1055700042880346612A10B510D007D8422A13D0BA
:10558000432A13D062B14FF0FF3008E06B2A09D0F4
:10559000AB2A07D0622AF6D1008A00E0408A10BD0B
:1055A000807CFCE7187CFAE7808AF8E7008A00280C
:1055B000F5D1D98A064A52F8043B23B15C8C8C425F
:1055C00001D11868EBE701301428F4D1DBE700BF04
:1055D000F0200020024B0146186804F06FBE00BFA7
:1055E000E42000202DE9F04100240546A0460F4E9E
:1055F0000F4F3378A34202D80020BDE8F0813A680B
:10560000E00012F8341002EBC40319B1596819B163
:1056100002F800800134ECE701215D805B7899405D
:10562000044B186804F04AFEF4E700BF165400204B
:10563000E8200020E02000202DE9F04F044695B03E
:105640003022002108A803F0A7FFA37ADB438DF8DE
:105650002630E37A8DF8243094F8323003F00302D8
:10566000012A08BF8DF827201B0744BF03238DF8AC
:105670002530237C03F0F003502B01D0802B5DD12B
:105680002588242D5AD9236A243DCDF84A30A38C8D
:10569000DFF84492DFF844A2DFF844B2ADB2ADF8CF
:1056A0004E3034342778302F62D0DD2F00F0DE808A
:1056B0005FB96678A11C32460AA803F078FF06F1AC
:1056C00050030DEB030606F8287C6378023DED1AC3
:1056D000ADB20233022D1C44E4D8DFF80892D9F8A9
:1056E00000804446A4B9302002F032F90746051D77
:1056F00009AE0FCE0FC50FCE0FC596E8070085E89F
:1057000007003C60B8F1000F1DD1C9F8007015E02A
:10571000062204F12A010DF14A0003F02DFF80B9A1
:105720000AAA083412AD134603CBAB422060616075
:105730001A4604F10804F6D11B88238015B0BDE891
:10574000F08F2468CEE7BA7998F80630934207D9EB
:10575000C7F80080002CD8D02760EFE79846F3E721
:10576000D8F800304446002BF8D1C8F80070E5E7BF
:105770000523B4F808808DF8253004F10A0303EB03
:10578000880633F82830B9F80020059399F80230DC
:1057900059468DF81E30A3794B4802936379ADF8D2
:1057A0001C20019323795246009340F26B1303F0BF
:1057B000F7FB5246594645484FF4B673CDF8008082
:1057C00003F0EEFB032207A9201D03F0D5FE0028FD
:1057D0007FF47BAF02238DF82530059B727906EBB1
:1057E00083018E4216D1012A04BF05238DF825308E
:1057F000810305D582070CBF09230A238DF82530C4
:10580000C3037FF562AF324B03406BBB07238DF8B8
:1058100025305AE7F378B7781B0443EA07633779F2
:10582000134343EA07236FF44067A3F57A233B440D
:10583000082B08D8DFE803F0050907070C0F07124B
:10584000150040F003000436CBE740F00C00FAE707
:1058500040F40030F7E740F48020F4E740F4803073
:10586000F1E740F48010EEE70823D0E7194B07A9D1
:105870001A889B78ADF81C20A01C03228DF81E30DE
:1058800003F07AFE00287FF420AF6379012B7FF4C8
:105890001CAF9DF8253013B1032B7FF416AF012305
:1058A000617B8DF8253004F10E0303EB810233F8A0
:1058B0002130002B3FF409AF02EB83035B78012B0F
:1058C0007FF403AF0423A2E752C7000876C700089D
:1058D0000800040035CB000832CB00081ECB0008BE
:1058E000FEC6000840210020034630B500B900BEC6
:1058F000074A02F13805144603CCAC4218605960DF
:10590000224603F10803F6D12068186030BD00BFBD
:10591000A022002040220021014803F03DBE00BF2C
:10592000A0220020002977D1712821D8672809D822
:1059300014283AD014D803285FD013282ED04FF063
:10594000FF3070476838092800F29880DFE800F0DF
:1059500005962696969696965E485748002170477B
:105960003D28ECD1084640F4003040F00B00704771
:10597000C32831D00AD8A2284AD0C22823D08828E8
:1059800014BF4FF0FF304FF004107047F12841D0A2
:10599000F428D4D1084640F0050070470020DDE728
:1059A0004FF000404FF0FF317047084640F00100D3
:1059B00070474FF000404FF0FF31F7E74FF00040E5
:1059C0004FF0FF31E7E7084640F0080070474FF01E
:1059D00000404FF0FF31F7E7084640F00A007047FB
:1059E0000920BBE7080440F0090041F3C0317047CB
:1059F0004FF000404FF0FF31B5E7084640F48030EB
:105A0000B3E74FF000404FF0FF31F7E72B48A5E731
:105A10002B4870472B487047712832D867280ED81A
:105A20001428C6D028D80328EBD013280BBF4FF07A
:105A300000404FF0FF304FF0FF31002170476838D1
:105A400009281BD801A353F820F000BF755A00089D
:105A50007D5A0008A15900087D5A00087D5A0008A7
:105A60007D5A00087D5A00087D5A0008755A0008C2
:105A7000E5590008144895E73D28B9D04FF0FF30AC
:105A80006CE7C228A3D00BD88828F3D0A22818BF6F
:105A900000210D480CBF4FF0FF314FF0FF30704731
:105AA000F128E7D0F42889D0C328E7D14FF000408F
:105AB0004FF0FF3191E700BF040003000400050030
:105AC000040002000400010004000080F0B52E4C28
:105AD0004FF4A07200212D488BB003F05DFD2068CB
